{
  "abi": [
    {
      "inputs": [
        {
          "internalType": "string",
          "name": "name",
          "type": "string"
        },
        {
          "internalType": "string",
          "name": "symbol",
          "type": "string"
        },
        {
          "internalType": "string",
          "name": "baseTokenURI",
          "type": "string"
        },
        {
          "internalType": "uint256[5]",
          "name": "numericValues",
          "type": "uint256[5]"
        },
        {
          "internalType": "address",
          "name": "royaltyRecipient",
          "type": "address"
        },
        {
          "internalType": "uint256",
          "name": "royaltyAmount",
          "type": "uint256"
        }
      ],
      "stateMutability": "nonpayable",
      "type": "constructor"
    },
    {
      "anonymous": false,
      "inputs": [
        {
          "indexed": true,
          "internalType": "address",
          "name": "owner",
          "type": "address"
        },
        {
          "indexed": true,
          "internalType": "address",
          "name": "approved",
          "type": "address"
        },
        {
          "indexed": true,
          "internalType": "uint256",
          "name": "tokenId",
          "type": "uint256"
        }
      ],
      "name": "Approval",
      "type": "event"
    },
    {
      "anonymous": false,
      "inputs": [
        {
          "indexed": true,
          "internalType": "address",
          "name": "owner",
          "type": "address"
        },
        {
          "indexed": true,
          "internalType": "address",
          "name": "operator",
          "type": "address"
        },
        {
          "indexed": false,
          "internalType": "bool",
          "name": "approved",
          "type": "bool"
        }
      ],
      "name": "ApprovalForAll",
      "type": "event"
    },
    {
      "anonymous": false,
      "inputs": [
        {
          "indexed": true,
          "internalType": "address",
          "name": "previousOwner",
          "type": "address"
        },
        {
          "indexed": true,
          "internalType": "address",
          "name": "newOwner",
          "type": "address"
        }
      ],
      "name": "OwnershipTransferred",
      "type": "event"
    },
    {
      "anonymous": false,
      "inputs": [
        {
          "indexed": false,
          "internalType": "address",
          "name": "account",
          "type": "address"
        }
      ],
      "name": "Paused",
      "type": "event"
    },
    {
      "anonymous": false,
      "inputs": [
        {
          "indexed": true,
          "internalType": "address",
          "name": "addr",
          "type": "address"
        },
        {
          "indexed": true,
          "internalType": "uint256",
          "name": "atPrice",
          "type": "uint256"
        },
        {
          "indexed": true,
          "internalType": "uint256",
          "name": "count",
          "type": "uint256"
        }
      ],
      "name": "Purchase",
      "type": "event"
    },
    {
      "anonymous": false,
      "inputs": [
        {
          "indexed": true,
          "internalType": "address",
          "name": "from",
          "type": "address"
        },
        {
          "indexed": true,
          "internalType": "address",
          "name": "to",
          "type": "address"
        },
        {
          "indexed": true,
          "internalType": "uint256",
          "name": "tokenId",
          "type": "uint256"
        }
      ],
      "name": "Transfer",
      "type": "event"
    },
    {
      "anonymous": false,
      "inputs": [
        {
          "indexed": false,
          "internalType": "address",
          "name": "account",
          "type": "address"
        }
      ],
      "name": "Unpaused",
      "type": "event"
    },
    {
      "inputs": [],
      "name": "MAX_TOTAL_MINT",
      "outputs": [
        {
          "internalType": "uint256",
          "name": "",
          "type": "uint256"
        }
      ],
      "stateMutability": "view",
      "type": "function"
    },
    {
      "inputs": [],
      "name": "MAX_TOTAL_MINT_PER_ADDRESS",
      "outputs": [
        {
          "internalType": "uint256",
          "name": "",
          "type": "uint256"
        }
      ],
      "stateMutability": "view",
      "type": "function"
    },
    {
      "inputs": [],
      "name": "PRICE",
      "outputs": [
        {
          "internalType": "uint256",
          "name": "",
          "type": "uint256"
        }
      ],
      "stateMutability": "view",
      "type": "function"
    },
    {
      "inputs": [],
      "name": "_baseTokenURI",
      "outputs": [
        {
          "internalType": "string",
          "name": "",
          "type": "string"
        }
      ],
      "stateMutability": "view",
      "type": "function"
    },
    {
      "inputs": [],
      "name": "_maxPerAddress",
      "outputs": [
        {
          "internalType": "uint256",
          "name": "",
          "type": "uint256"
        }
      ],
      "stateMutability": "view",
      "type": "function"
    },
    {
      "inputs": [],
      "name": "_maxSupply",
      "outputs": [
        {
          "internalType": "uint256",
          "name": "",
          "type": "uint256"
        }
      ],
      "stateMutability": "view",
      "type": "function"
    },
    {
      "inputs": [],
      "name": "_maxTxPerAddress",
      "outputs": [
        {
          "internalType": "uint256",
          "name": "",
          "type": "uint256"
        }
      ],
      "stateMutability": "view",
      "type": "function"
    },
    {
      "inputs": [],
      "name": "_price",
      "outputs": [
        {
          "internalType": "uint256",
          "name": "",
          "type": "uint256"
        }
      ],
      "stateMutability": "view",
      "type": "function"
    },
    {
      "inputs": [],
      "name": "_publicSaleTime",
      "outputs": [
        {
          "internalType": "uint256",
          "name": "",
          "type": "uint256"
        }
      ],
      "stateMutability": "view",
      "type": "function"
    },
    {
      "inputs": [
        {
          "internalType": "address",
          "name": "to",
          "type": "address"
        },
        {
          "internalType": "uint256",
          "name": "tokenId",
          "type": "uint256"
        }
      ],
      "name": "approve",
      "outputs": [],
      "stateMutability": "nonpayable",
      "type": "function"
    },
    {
      "inputs": [
        {
          "internalType": "address",
          "name": "owner",
          "type": "address"
        }
      ],
      "name": "balanceOf",
      "outputs": [
        {
          "internalType": "uint256",
          "name": "",
          "type": "uint256"
        }
      ],
      "stateMutability": "view",
      "type": "function"
    },
    {
      "inputs": [
        {
          "internalType": "uint256",
          "name": "tokenId",
          "type": "uint256"
        }
      ],
      "name": "getApproved",
      "outputs": [
        {
          "internalType": "address",
          "name": "",
          "type": "address"
        }
      ],
      "stateMutability": "view",
      "type": "function"
    },
    {
      "inputs": [
        {
          "internalType": "address",
          "name": "owner",
          "type": "address"
        },
        {
          "internalType": "address",
          "name": "operator",
          "type": "address"
        }
      ],
      "name": "isApprovedForAll",
      "outputs": [
        {
          "internalType": "bool",
          "name": "",
          "type": "bool"
        }
      ],
      "stateMutability": "view",
      "type": "function"
    },
    {
      "inputs": [],
      "name": "isPreSaleActive",
      "outputs": [
        {
          "internalType": "bool",
          "name": "",
          "type": "bool"
        }
      ],
      "stateMutability": "pure",
      "type": "function"
    },
    {
      "inputs": [],
      "name": "isPublicSaleActive",
      "outputs": [
        {
          "internalType": "bool",
          "name": "",
          "type": "bool"
        }
      ],
      "stateMutability": "view",
      "type": "function"
    },
    {
      "inputs": [
        {
          "internalType": "address",
          "name": "to",
          "type": "address"
        },
        {
          "internalType": "uint256",
          "name": "count",
          "type": "uint256"
        }
      ],
      "name": "mint",
      "outputs": [],
      "stateMutability": "payable",
      "type": "function"
    },
    {
      "inputs": [],
      "name": "name",
      "outputs": [
        {
          "internalType": "string",
          "name": "",
          "type": "string"
        }
      ],
      "stateMutability": "view",
      "type": "function"
    },
    {
      "inputs": [],
      "name": "nextOwnerToExplicitlySet",
      "outputs": [
        {
          "internalType": "uint256",
          "name": "",
          "type": "uint256"
        }
      ],
      "stateMutability": "view",
      "type": "function"
    },
    {
      "inputs": [],
      "name": "owner",
      "outputs": [
        {
          "internalType": "address",
          "name": "",
          "type": "address"
        }
      ],
      "stateMutability": "view",
      "type": "function"
    },
    {
      "inputs": [
        {
          "internalType": "uint256",
          "name": "tokenId",
          "type": "uint256"
        }
      ],
      "name": "ownerOf",
      "outputs": [
        {
          "internalType": "address",
          "name": "",
          "type": "address"
        }
      ],
      "stateMutability": "view",
      "type": "function"
    },
    {
      "inputs": [],
      "name": "pause",
      "outputs": [],
      "stateMutability": "nonpayable",
      "type": "function"
    },
    {
      "inputs": [],
      "name": "paused",
      "outputs": [
        {
          "internalType": "bool",
          "name": "",
          "type": "bool"
        }
      ],
      "stateMutability": "view",
      "type": "function"
    },
    {
      "inputs": [
        {
          "internalType": "uint256",
          "name": "count",
          "type": "uint256"
        }
      ],
      "name": "purchase",
      "outputs": [],
      "stateMutability": "payable",
      "type": "function"
    },
    {
      "inputs": [],
      "name": "renounceOwnership",
      "outputs": [],
      "stateMutability": "nonpayable",
      "type": "function"
    },
    {
      "inputs": [
        {
          "internalType": "uint256",
          "name": "",
          "type": "uint256"
        },
        {
          "internalType": "uint256",
          "name": "value",
          "type": "uint256"
        }
      ],
      "name": "royaltyInfo",
      "outputs": [
        {
          "internalType": "address",
          "name": "receiver",
          "type": "address"
        },
        {
          "internalType": "uint256",
          "name": "royaltyAmount",
          "type": "uint256"
        }
      ],
      "stateMutability": "view",
      "type": "function"
    },
    {
      "inputs": [
        {
          "internalType": "address",
          "name": "from",
          "type": "address"
        },
        {
          "internalType": "address",
          "name": "to",
          "type": "address"
        },
        {
          "internalType": "uint256",
          "name": "tokenId",
          "type": "uint256"
        }
      ],
      "name": "safeTransferFrom",
      "outputs": [],
      "stateMutability": "nonpayable",
      "type": "function"
    },
    {
      "inputs": [
        {
          "internalType": "address",
          "name": "from",
          "type": "address"
        },
        {
          "internalType": "address",
          "name": "to",
          "type": "address"
        },
        {
          "internalType": "uint256",
          "name": "tokenId",
          "type": "uint256"
        },
        {
          "internalType": "bytes",
          "name": "_data",
          "type": "bytes"
        }
      ],
      "name": "safeTransferFrom",
      "outputs": [],
      "stateMutability": "nonpayable",
      "type": "function"
    },
    {
      "inputs": [
        {
          "internalType": "address",
          "name": "operator",
          "type": "address"
        },
        {
          "internalType": "bool",
          "name": "approved",
          "type": "bool"
        }
      ],
      "name": "setApprovalForAll",
      "outputs": [],
      "stateMutability": "nonpayable",
      "type": "function"
    },
    {
      "inputs": [
        {
          "internalType": "string",
          "name": "baseUri",
          "type": "string"
        }
      ],
      "name": "setBaseUri",
      "outputs": [],
      "stateMutability": "nonpayable",
      "type": "function"
    },
    {
      "inputs": [
        {
          "internalType": "uint256",
          "name": "publicSaleTime",
          "type": "uint256"
        },
        {
          "internalType": "uint256",
          "name": "maxPerAddress",
          "type": "uint256"
        },
        {
          "internalType": "uint256",
          "name": "price",
          "type": "uint256"
        },
        {
          "internalType": "uint256",
          "name": "maxTxPerAddress",
          "type": "uint256"
        }
      ],
      "name": "setSaleInformation",
      "outputs": [],
      "stateMutability": "nonpayable",
      "type": "function"
    },
    {
      "inputs": [
        {
          "internalType": "bytes4",
          "name": "interfaceId",
          "type": "bytes4"
        }
      ],
      "name": "supportsInterface",
      "outputs": [
        {
          "internalType": "bool",
          "name": "",
          "type": "bool"
        }
      ],
      "stateMutability": "view",
      "type": "function"
    },
    {
      "inputs": [],
      "name": "symbol",
      "outputs": [
        {
          "internalType": "string",
          "name": "",
          "type": "string"
        }
      ],
      "stateMutability": "view",
      "type": "function"
    },
    {
      "inputs": [
        {
          "internalType": "uint256",
          "name": "index",
          "type": "uint256"
        }
      ],
      "name": "tokenByIndex",
      "outputs": [
        {
          "internalType": "uint256",
          "name": "",
          "type": "uint256"
        }
      ],
      "stateMutability": "view",
      "type": "function"
    },
    {
      "inputs": [
        {
          "internalType": "address",
          "name": "owner",
          "type": "address"
        },
        {
          "internalType": "uint256",
          "name": "index",
          "type": "uint256"
        }
      ],
      "name": "tokenOfOwnerByIndex",
      "outputs": [
        {
          "internalType": "uint256",
          "name": "",
          "type": "uint256"
        }
      ],
      "stateMutability": "view",
      "type": "function"
    },
    {
      "inputs": [
        {
          "internalType": "uint256",
          "name": "tokenId",
          "type": "uint256"
        }
      ],
      "name": "tokenURI",
      "outputs": [
        {
          "internalType": "string",
          "name": "",
          "type": "string"
        }
      ],
      "stateMutability": "view",
      "type": "function"
    },
    {
      "inputs": [],
      "name": "totalSupply",
      "outputs": [
        {
          "internalType": "uint256",
          "name": "",
          "type": "uint256"
        }
      ],
      "stateMutability": "view",
      "type": "function"
    },
    {
      "inputs": [
        {
          "internalType": "address",
          "name": "from",
          "type": "address"
        },
        {
          "internalType": "address",
          "name": "to",
          "type": "address"
        },
        {
          "internalType": "uint256",
          "name": "tokenId",
          "type": "uint256"
        }
      ],
      "name": "transferFrom",
      "outputs": [],
      "stateMutability": "nonpayable",
      "type": "function"
    },
    {
      "inputs": [
        {
          "internalType": "address",
          "name": "newOwner",
          "type": "address"
        }
      ],
      "name": "transferOwnership",
      "outputs": [],
      "stateMutability": "nonpayable",
      "type": "function"
    },
    {
      "inputs": [],
      "name": "unpause",
      "outputs": [],
      "stateMutability": "nonpayable",
      "type": "function"
    },
    {
      "inputs": [
        {
          "internalType": "address",
          "name": "recipient",
          "type": "address"
        },
        {
          "internalType": "uint256",
          "name": "value",
          "type": "uint256"
        }
      ],
      "name": "updateRoyalties",
      "outputs": [],
      "stateMutability": "nonpayable",
      "type": "function"
    }
  ],
  "bytecode": {
    "object": "0x60a06040526001805560006008553480156200001a57600080fd5b5060405162002f3638038062002f368339810160408190526200003d9162000409565b602083015186908690848484848462000056336200014f565b60008111620000bc5760405162461bcd60e51b815260206004820152602760248201527f455243373231413a206d61782062617463682073697a65206d757374206265206044820152666e6f6e7a65726f60c81b60648201526084015b60405180910390fd5b8251620000d19060029060208601906200023d565b508151620000e79060039060208501906200023d565b5060805250620000fa905082826200019f565b5050600a805460ff19169055505084516200011e9150600b9060208701906200023d565b50508151600c55506020810151600d556040810151600e556060810151600f55608001516010555062000548915050565b600080546001600160a01b038381166001600160a01b0319831681178455604051919092169283917f8be0079c531659141344cd1fd0a4f28419497f9722a3daafe3b4186f6b6457e09190a35050565b612710811115620001f35760405162461bcd60e51b815260206004820152601a60248201527f45524332393831526f79616c746965733a20546f6f20686967680000000000006044820152606401620000b3565b604080518082019091526001600160a01b0390921680835262ffffff909116602090920182905260098054600160a01b9093026001600160b81b0319909316909117919091179055565b8280546200024b906200050b565b90600052602060002090601f0160209004810192826200026f5760008555620002ba565b82601f106200028a57805160ff1916838001178555620002ba565b82800160010185558215620002ba579182015b82811115620002ba5782518255916020019190600101906200029d565b50620002c8929150620002cc565b5090565b5b80821115620002c85760008155600101620002cd565b634e487b7160e01b600052604160045260246000fd5b60405160a081016001600160401b03811182821017156200031e576200031e620002e3565b60405290565b604051601f8201601f191681016001600160401b03811182821017156200034f576200034f620002e3565b604052919050565b600082601f8301126200036957600080fd5b81516001600160401b03811115620003855762000385620002e3565b60206200039b601f8301601f1916820162000324565b8281528582848701011115620003b057600080fd5b60005b83811015620003d0578581018301518282018401528201620003b3565b83811115620003e25760008385840101525b5095945050505050565b80516001600160a01b03811681146200040457600080fd5b919050565b60008060008060008061014087890312156200042457600080fd5b86516001600160401b03808211156200043c57600080fd5b6200044a8a838b0162000357565b97506020915081890151818111156200046257600080fd5b620004708b828c0162000357565b9750506040890151818111156200048657600080fd5b620004948b828c0162000357565b9650505088607f890112620004a857600080fd5b620004b2620002f9565b806101008a018b811115620004c657600080fd5b60608b015b81811015620004e45780518452928401928401620004cb565b50819650620004f381620003ec565b95505050505061012087015190509295509295509295565b600181811c908216806200052057607f821691505b602082108114156200054257634e487b7160e01b600052602260045260246000fd5b50919050565b6080516129c462000572600039600081816118010152818161182b0152611e8901526129c46000f3fe60806040526004361061023b5760003560e01c80636c2f5acd1161012e578063b85ef036116100ab578063d7224ba01161006f578063d7224ba014610645578063e2d5ee2d1461065b578063e985e9c514610671578063efef39a1146106ba578063f2fde38b146106cd57600080fd5b8063b85ef036146105c5578063b88d4fde146105db578063c87b56dd146105fb578063cf9e8e691461061b578063cfc86f7b1461063057600080fd5b80638da5cb5b116100f25780638da5cb5b1461053e57806395d89b411461055c5780639d044ed314610571578063a0bcfc7f14610585578063a22cb465146105a557600080fd5b80636c2f5acd146104bf57806370a08231146104df578063715018a6146104ff5780638456cb59146105145780638d859f3e1461052957600080fd5b80632a55205a116101bc5780634f6ccce7116101805780634f6ccce71461043c5780635c975abb1461045c5780636352211e1461047457806366cfb1f314610494578063696fa41e146104a957600080fd5b80632a55205a146103955780632f745c59146103d45780633f4ba83a146103f457806340c10f191461040957806342842e0e1461041c57600080fd5b80631e84c413116102035780631e84c4131461031457806322f4596f14610329578063235b6ea11461033f57806323b872dd1461035557806326c240611461037557600080fd5b806301ffc9a71461024057806306fdde0314610275578063081812fc14610297578063095ea7b3146102cf57806318160ddd146102f1575b600080fd5b34801561024c57600080fd5b5061026061025b3660046122e9565b6106ed565b60405190151581526020015b60405180910390f35b34801561028157600080fd5b5061028a610718565b60405161026c919061235e565b3480156102a357600080fd5b506102b76102b2366004612371565b6107aa565b6040516001600160a01b03909116815260200161026c565b3480156102db57600080fd5b506102ef6102ea3660046123a6565b61083a565b005b3480156102fd57600080fd5b50610306610952565b60405190815260200161026c565b34801561032057600080fd5b50610260610967565b34801561033557600080fd5b50610306600d5481565b34801561034b57600080fd5b50610306600c5481565b34801561036157600080fd5b506102ef6103703660046123d0565b61097f565b34801561038157600080fd5b506102ef61039036600461240c565b61098a565b3480156103a157600080fd5b506103b56103b036600461243e565b6109c8565b604080516001600160a01b03909316835260208301919091520161026c565b3480156103e057600080fd5b506103066103ef3660046123a6565b610a1d565b34801561040057600080fd5b506102ef610b95565b6102ef6104173660046123a6565b610bc9565b34801561042857600080fd5b506102ef6104373660046123d0565b610c0a565b34801561044857600080fd5b50610306610457366004612371565b610c25565b34801561046857600080fd5b50600a5460ff16610260565b34801561048057600080fd5b506102b761048f366004612371565b610c8d565b3480156104a057600080fd5b50600e54610306565b3480156104b557600080fd5b5061030660105481565b3480156104cb57600080fd5b506102ef6104da3660046123a6565b610c9f565b3480156104eb57600080fd5b506103066104fa366004612460565b610cd3565b34801561050b57600080fd5b506102ef610d64565b34801561052057600080fd5b506102ef610d98565b34801561053557600080fd5b50600c54610306565b34801561054a57600080fd5b506000546001600160a01b03166102b7565b34801561056857600080fd5b5061028a610dca565b34801561057d57600080fd5b506000610260565b34801561059157600080fd5b506102ef6105a0366004612507565b610dd9565b3480156105b157600080fd5b506102ef6105c0366004612550565b610e16565b3480156105d157600080fd5b50610306600f5481565b3480156105e757600080fd5b506102ef6105f636600461258c565b610edb565b34801561060757600080fd5b5061028a610616366004612371565b610f14565b34801561062757600080fd5b50600d54610306565b34801561063c57600080fd5b5061028a610fe1565b34801561065157600080fd5b5061030660085481565b34801561066757600080fd5b50610306600e5481565b34801561067d57600080fd5b5061026061068c366004612608565b6001600160a01b03918216600090815260076020908152604080832093909416825291909152205460ff1690565b6102ef6106c8366004612371565b61106f565b3480156106d957600080fd5b506102ef6106e8366004612460565b611179565b60006001600160e01b0319821663152a902d60e11b1480610712575061071282611214565b92915050565b6060600280546107279061263b565b80601f01602080910402602001604051908101604052809291908181526020018280546107539061263b565b80156107a05780601f10610775576101008083540402835291602001916107a0565b820191906000526020600020905b81548152906001019060200180831161078357829003601f168201915b5050505050905090565b60006107b7826001541190565b61081e5760405162461bcd60e51b815260206004820152602d60248201527f455243373231413a20617070726f76656420717565727920666f72206e6f6e6560448201526c3c34b9ba32b73a103a37b5b2b760991b60648201526084015b60405180910390fd5b506000908152600660205260409020546001600160a01b031690565b600061084582610c8d565b9050806001600160a01b0316836001600160a01b031614156108b45760405162461bcd60e51b815260206004820152602260248201527f455243373231413a20617070726f76616c20746f2063757272656e74206f776e60448201526132b960f11b6064820152608401610815565b336001600160a01b03821614806108d057506108d0813361068c565b6109425760405162461bcd60e51b815260206004820152603960248201527f455243373231413a20617070726f76652063616c6c6572206973206e6f74206f60448201527f776e6572206e6f7220617070726f76656420666f7220616c6c000000000000006064820152608401610815565b61094d83838361127f565b505050565b600060018054610962919061268c565b905090565b6000600f5460001480610962575042600f5410905090565b61094d8383836112db565b6000546001600160a01b031633146109b45760405162461bcd60e51b8152600401610815906126a3565b600f93909355600e91909155600c55601055565b604080518082019091526009546001600160a01b038116808352600160a01b90910462ffffff1660208301819052909160009161271090610a0990866126d8565b610a13919061270d565b9150509250929050565b6000610a2883610cd3565b8210610a815760405162461bcd60e51b815260206004820152602260248201527f455243373231413a206f776e657220696e646578206f7574206f6620626f756e604482015261647360f01b6064820152608401610815565b6000610a8b610952565b905060008060005b83811015610b35576000818152600460209081526040918290208251808401909352546001600160a01b038116808452600160a01b90910467ffffffffffffffff169183019190915215610ae657805192505b876001600160a01b0316836001600160a01b03161415610b225786841415610b145750935061071292505050565b83610b1e81612721565b9450505b5080610b2d81612721565b915050610a93565b5060405162461bcd60e51b815260206004820152602e60248201527f455243373231413a20756e61626c6520746f2067657420746f6b656e206f662060448201526d0deeedccae440c4f240d2dcc8caf60931b6064820152608401610815565b6000546001600160a01b03163314610bbf5760405162461bcd60e51b8152600401610815906126a3565b610bc7611663565b565b6000546001600160a01b03163314610bf35760405162461bcd60e51b8152600401610815906126a3565b610bfc816116f6565b610c068282611765565b5050565b61094d83838360405180602001604052806000815250610edb565b6000610c2f610952565b8210610c895760405162461bcd60e51b815260206004820152602360248201527f455243373231413a20676c6f62616c20696e646578206f7574206f6620626f756044820152626e647360e81b6064820152608401610815565b5090565b6000610c988261177f565b5192915050565b6000546001600160a01b03163314610cc95760405162461bcd60e51b8152600401610815906126a3565b610c068282611929565b60006001600160a01b038216610d3f5760405162461bcd60e51b815260206004820152602b60248201527f455243373231413a2062616c616e636520717565727920666f7220746865207a60448201526a65726f206164647265737360a81b6064820152608401610815565b506001600160a01b03166000908152600560205260409020546001600160801b031690565b6000546001600160a01b03163314610d8e5760405162461bcd60e51b8152600401610815906126a3565b610bc760006119c5565b6000546001600160a01b03163314610dc25760405162461bcd60e51b8152600401610815906126a3565b610bc7611a15565b6060600380546107279061263b565b6000546001600160a01b03163314610e035760405162461bcd60e51b8152600401610815906126a3565b8051610c0690600b906020840190612243565b6001600160a01b038216331415610e6f5760405162461bcd60e51b815260206004820152601a60248201527f455243373231413a20617070726f766520746f2063616c6c65720000000000006044820152606401610815565b3360008181526007602090815260408083206001600160a01b03871680855290835292819020805460ff191686151590811790915590519081529192917f17307eab39ab6107e8899845ad3d59bd9653f200f220920489ca2b5937696c31910160405180910390a35050565b610ee68484846112db565b610ef284848484611a90565b610f0e5760405162461bcd60e51b81526004016108159061273c565b50505050565b6060610f21826001541190565b610f855760405162461bcd60e51b815260206004820152602f60248201527f4552433732314d657461646174613a2055524920717565727920666f72206e6f60448201526e3732bc34b9ba32b73a103a37b5b2b760891b6064820152608401610815565b6000610f8f611b8f565b90506000815111610faf5760405180602001604052806000815250610fda565b80610fb984611bc3565b604051602001610fca9291906127ab565b6040516020818303038152906040525b9392505050565b600b8054610fee9061263b565b80601f016020809104026020016040519081016040528092919081815260200182805461101a9061263b565b80156110675780601f1061103c57610100808354040283529160200191611067565b820191906000526020600020905b81548152906001019060200180831161104a57829003601f168201915b505050505081565b600a5460ff16156110b55760405162461bcd60e51b815260206004820152601060248201526f14185d5cd8589b194e881c185d5cd95960821b6044820152606401610815565b6110c23382600e54611cc1565b6110ca610967565b6111165760405162461bcd60e51b815260206004820152601b60248201527f424153455f434f4c4c454354494f4e2f43414e4e4f545f4d494e5400000000006044820152606401610815565b33600090815260116020526040812080548392906111359084906127da565b9091555061114590503382611765565b600c5460405182919033907f12cb4648cf3058b17ceeb33e579f8b0bc269fe0843f3900b8e24b6c54871703c90600090a450565b6000546001600160a01b031633146111a35760405162461bcd60e51b8152600401610815906126a3565b6001600160a01b0381166112085760405162461bcd60e51b815260206004820152602660248201527f4f776e61626c653a206e6577206f776e657220697320746865207a65726f206160448201526564647265737360d01b6064820152608401610815565b611211816119c5565b50565b60006001600160e01b031982166380ac58cd60e01b148061124557506001600160e01b03198216635b5e139f60e01b145b8061126057506001600160e01b0319821663780e9d6360e01b145b8061071257506301ffc9a760e01b6001600160e01b0319831614610712565b60008281526006602052604080822080546001600160a01b0319166001600160a01b0387811691821790925591518593918516917f8c5be1e5ebec7d5bd14f71427d1e84f3dd0314c0f7b2291e5b200ac8c7c3b92591a4505050565b60006112e68261177f565b80519091506000906001600160a01b0316336001600160a01b0316148061131d575033611312846107aa565b6001600160a01b0316145b8061132f5750815161132f903361068c565b9050806113995760405162461bcd60e51b815260206004820152603260248201527f455243373231413a207472616e736665722063616c6c6572206973206e6f74206044820152711bdddb995c881b9bdc88185c1c1c9bdd995960721b6064820152608401610815565b846001600160a01b031682600001516001600160a01b03161461140d5760405162461bcd60e51b815260206004820152602660248201527f455243373231413a207472616e736665722066726f6d20696e636f72726563746044820152651037bbb732b960d11b6064820152608401610815565b6001600160a01b0384166114715760405162461bcd60e51b815260206004820152602560248201527f455243373231413a207472616e7366657220746f20746865207a65726f206164604482015264647265737360d81b6064820152608401610815565b611481600084846000015161127f565b6001600160a01b03851660009081526005602052604081208054600192906114b39084906001600160801b03166127f2565b82546101009290920a6001600160801b038181021990931691831602179091556001600160a01b038616600090815260056020526040812080546001945090926114ff9185911661281a565b82546001600160801b039182166101009390930a9283029190920219909116179055506040805180820182526001600160a01b03808716825267ffffffffffffffff428116602080850191825260008981526004909152948520935184549151909216600160a01b026001600160e01b031990911691909216171790556115878460016127da565b6000818152600460205260409020549091506001600160a01b0316611619576115b1816001541190565b156116195760408051808201825284516001600160a01b03908116825260208087015167ffffffffffffffff9081168285019081526000878152600490935294909120925183549451909116600160a01b026001600160e01b03199094169116179190911790555b83856001600160a01b0316876001600160a01b03167fddf252ad1be2c89b69c2b068fc378daa952ba7f163c4a11628f55a4df523b3ef60405160405180910390a45b505050505050565b600a5460ff166116ac5760405162461bcd60e51b815260206004820152601460248201527314185d5cd8589b194e881b9bdd081c185d5cd95960621b6044820152606401610815565b600a805460ff191690557f5db9ee0a495bf2e6ff9c91a7834c1ba4fdd244a5e8aa4e537bd38aeae4b073aa335b6040516001600160a01b03909116815260200160405180910390a1565b600d5481611702610952565b61170c91906127da565b11156112115760405162461bcd60e51b815260206004820152602260248201527f424153455f434f4c4c454354494f4e2f455843454544535f4d41585f535550506044820152614c5960f01b6064820152608401610815565b610c06828260405180602001604052806000815250611dcc565b604080518082019091526000808252602082015261179e826001541190565b6117fd5760405162461bcd60e51b815260206004820152602a60248201527f455243373231413a206f776e657220717565727920666f72206e6f6e657869736044820152693a32b73a103a37b5b2b760b11b6064820152608401610815565b60007f0000000000000000000000000000000000000000000000000000000000000000831061185e576118507f00000000000000000000000000000000000000000000000000000000000000008461268c565b61185b9060016127da565b90505b825b8181106118c8576000818152600460209081526040918290208251808401909352546001600160a01b038116808452600160a01b90910467ffffffffffffffff1691830191909152156118b557949350505050565b50806118c08161283c565b915050611860565b5060405162461bcd60e51b815260206004820152602f60248201527f455243373231413a20756e61626c6520746f2064657465726d696e652074686560448201526e1037bbb732b91037b3103a37b5b2b760891b6064820152608401610815565b61271081111561197b5760405162461bcd60e51b815260206004820152601a60248201527f45524332393831526f79616c746965733a20546f6f20686967680000000000006044820152606401610815565b604080518082019091526001600160a01b0390921680835262ffffff909116602090920182905260098054600160a01b9093026001600160b81b0319909316909117919091179055565b600080546001600160a01b038381166001600160a01b0319831681178455604051919092169283917f8be0079c531659141344cd1fd0a4f28419497f9722a3daafe3b4186f6b6457e09190a35050565b600a5460ff1615611a5b5760405162461bcd60e51b815260206004820152601060248201526f14185d5cd8589b194e881c185d5cd95960821b6044820152606401610815565b600a805460ff191660011790557f62e78cea01bee320cd4e420270b5ea74000d11b0c9f74754ebdbfc544b05a2586116d93390565b60006001600160a01b0384163b15611b8357604051630a85bd0160e11b81526001600160a01b0385169063150b7a0290611ad4903390899088908890600401612853565b6020604051808303816000875af1925050508015611b0f575060408051601f3d908101601f19168201909252611b0c91810190612890565b60015b611b69573d808015611b3d576040519150601f19603f3d011682016040523d82523d6000602084013e611b42565b606091505b508051611b615760405162461bcd60e51b81526004016108159061273c565b805181602001fd5b6001600160e01b031916630a85bd0160e11b149050611b87565b5060015b949350505050565b6060600b611b9e3060146120a7565b604051602001611baf9291906128ad565b604051602081830303815290604052905090565b606081611be75750506040805180820190915260018152600360fc1b602082015290565b8160005b8115611c115780611bfb81612721565b9150611c0a9050600a8361270d565b9150611beb565b60008167ffffffffffffffff811115611c2c57611c2c61247b565b6040519080825280601f01601f191660200182016040528015611c56576020820181803683370190505b5090505b8415611b8757611c6b60018361268c565b9150611c78600a86612964565b611c839060306127da565b60f81b818381518110611c9857611c98612978565b60200101906001600160f81b031916908160001a905350611cba600a8661270d565b9450611c5a565b611cca826116f6565b6010541580611cdb57506010548211155b611d3b5760405162461bcd60e51b815260206004820152602b60248201527f424153455f434f4c4c454354494f4e2f455843454544535f4d41585f5045525f60448201526a2a2920a729a0a1aa24a7a760a91b6064820152608401610815565b6001600160a01b038316600090815260116020526040812054611d5f9084906127da565b9050811580611d6e5750818111155b610f0e5760405162461bcd60e51b815260206004820152602960248201527f424153455f434f4c4c454354494f4e2f455843454544535f494e444956494455604482015268414c5f535550504c5960b81b6064820152608401610815565b6001546001600160a01b038416611e2f5760405162461bcd60e51b815260206004820152602160248201527f455243373231413a206d696e7420746f20746865207a65726f206164647265736044820152607360f81b6064820152608401610815565b611e3a816001541190565b15611e875760405162461bcd60e51b815260206004820152601d60248201527f455243373231413a20746f6b656e20616c7265616479206d696e7465640000006044820152606401610815565b7f0000000000000000000000000000000000000000000000000000000000000000831115611f025760405162461bcd60e51b815260206004820152602260248201527f455243373231413a207175616e7469747920746f206d696e7420746f6f2068696044820152610ced60f31b6064820152608401610815565b6001600160a01b0384166000908152600560209081526040918290208251808401845290546001600160801b038082168352600160801b9091041691810191909152815180830190925280519091908190611f5e90879061281a565b6001600160801b03168152602001858360200151611f7c919061281a565b6001600160801b039081169091526001600160a01b0380881660008181526005602090815260408083208751978301518716600160801b0297909616969096179094558451808601865291825267ffffffffffffffff4281168386019081528883526004909552948120915182549451909516600160a01b026001600160e01b031990941694909216939093179190911790915582905b8581101561209c5760405182906001600160a01b038916906000907fddf252ad1be2c89b69c2b068fc378daa952ba7f163c4a11628f55a4df523b3ef908290a46120606000888488611a90565b61207c5760405162461bcd60e51b81526004016108159061273c565b8161208681612721565b925050808061209490612721565b915050612013565b50600181905561165b565b606060006120b68360026126d8565b6120c19060026127da565b67ffffffffffffffff8111156120d9576120d961247b565b6040519080825280601f01601f191660200182016040528015612103576020820181803683370190505b509050600360fc1b8160008151811061211e5761211e612978565b60200101906001600160f81b031916908160001a905350600f60fb1b8160018151811061214d5761214d612978565b60200101906001600160f81b031916908160001a90535060006121718460026126d8565b61217c9060016127da565b90505b60018111156121f4576f181899199a1a9b1b9c1cb0b131b232b360811b85600f16601081106121b0576121b0612978565b1a60f81b8282815181106121c6576121c6612978565b60200101906001600160f81b031916908160001a90535060049490941c936121ed8161283c565b905061217f565b508315610fda5760405162461bcd60e51b815260206004820181905260248201527f537472696e67733a20686578206c656e67746820696e73756666696369656e746044820152606401610815565b82805461224f9061263b565b90600052602060002090601f01602090048101928261227157600085556122b7565b82601f1061228a57805160ff19168380011785556122b7565b828001600101855582156122b7579182015b828111156122b757825182559160200191906001019061229c565b50610c899291505b80821115610c8957600081556001016122bf565b6001600160e01b03198116811461121157600080fd5b6000602082840312156122fb57600080fd5b8135610fda816122d3565b60005b83811015612321578181015183820152602001612309565b83811115610f0e5750506000910152565b6000815180845261234a816020860160208601612306565b601f01601f19169290920160200192915050565b602081526000610fda6020830184612332565b60006020828403121561238357600080fd5b5035919050565b80356001600160a01b03811681146123a157600080fd5b919050565b600080604083850312156123b957600080fd5b6123c28361238a565b946020939093013593505050565b6000806000606084860312156123e557600080fd5b6123ee8461238a565b92506123fc6020850161238a565b9150604084013590509250925092565b6000806000806080858703121561242257600080fd5b5050823594602084013594506040840135936060013592509050565b6000806040838503121561245157600080fd5b50508035926020909101359150565b60006020828403121561247257600080fd5b610fda8261238a565b634e487b7160e01b600052604160045260246000fd5b600067ffffffffffffffff808411156124ac576124ac61247b565b604051601f8501601f19908116603f011681019082821181831017156124d4576124d461247b565b816040528093508581528686860111156124ed57600080fd5b858560208301376000602087830101525050509392505050565b60006020828403121561251957600080fd5b813567ffffffffffffffff81111561253057600080fd5b8201601f8101841361254157600080fd5b611b8784823560208401612491565b6000806040838503121561256357600080fd5b61256c8361238a565b91506020830135801515811461258157600080fd5b809150509250929050565b600080600080608085870312156125a257600080fd5b6125ab8561238a565b93506125b96020860161238a565b925060408501359150606085013567ffffffffffffffff8111156125dc57600080fd5b8501601f810187136125ed57600080fd5b6125fc87823560208401612491565b91505092959194509250565b6000806040838503121561261b57600080fd5b6126248361238a565b91506126326020840161238a565b90509250929050565b600181811c9082168061264f57607f821691505b6020821081141561267057634e487b7160e01b600052602260045260246000fd5b50919050565b634e487b7160e01b600052601160045260246000fd5b60008282101561269e5761269e612676565b500390565b6020808252818101527f4f776e61626c653a2063616c6c6572206973206e6f7420746865206f776e6572604082015260600190565b60008160001904831182151516156126f2576126f2612676565b500290565b634e487b7160e01b600052601260045260246000fd5b60008261271c5761271c6126f7565b500490565b600060001982141561273557612735612676565b5060010190565b60208082526033908201527f455243373231413a207472616e7366657220746f206e6f6e204552433732315260408201527232b1b2b4bb32b91034b6b83632b6b2b73a32b960691b606082015260800190565b600081516127a1818560208601612306565b9290920192915050565b600083516127bd818460208801612306565b8351908301906127d1818360208801612306565b01949350505050565b600082198211156127ed576127ed612676565b500190565b60006001600160801b038381169083168181101561281257612812612676565b039392505050565b60006001600160801b038083168185168083038211156127d1576127d1612676565b60008161284b5761284b612676565b506000190190565b6001600160a01b038581168252841660208201526040810183905260806060820181905260009061288690830184612332565b9695505050505050565b6000602082840312156128a257600080fd5b8151610fda816122d3565b600080845481600182811c9150808316806128c957607f831692505b60208084108214156128e957634e487b7160e01b86526022600452602486fd5b8180156128fd576001811461290e5761293b565b60ff1986168952848901965061293b565b60008b81526020902060005b868110156129335781548b82015290850190830161291a565b505084890196505b50505050505061295b61294e828661278f565b602f60f81b815260010190565b95945050505050565b600082612973576129736126f7565b500690565b634e487b7160e01b600052603260045260246000fdfea26469706673582212207b932ad67e61821f5dd43e4c8d1801a156070dad01ed389f5034a154aec207f664736f6c634300080a0033",
    "linkReferences": {}
  }
}