{
  "abi": [
    {
      "inputs": [
        {
          "internalType": "string",
          "name": "name_",
          "type": "string"
        },
        {
          "internalType": "string",
          "name": "symbol_",
          "type": "string"
        },
        {
          "internalType": "uint256",
          "name": "maxBatchSize_",
          "type": "uint256"
        }
      ],
      "stateMutability": "nonpayable",
      "type": "constructor"
    },
    {
      "anonymous": false,
      "inputs": [
        {
          "indexed": true,
          "internalType": "address",
          "name": "owner",
          "type": "address"
        },
        {
          "indexed": true,
          "internalType": "address",
          "name": "approved",
          "type": "address"
        },
        {
          "indexed": true,
          "internalType": "uint256",
          "name": "tokenId",
          "type": "uint256"
        }
      ],
      "name": "Approval",
      "type": "event"
    },
    {
      "anonymous": false,
      "inputs": [
        {
          "indexed": true,
          "internalType": "address",
          "name": "owner",
          "type": "address"
        },
        {
          "indexed": true,
          "internalType": "address",
          "name": "operator",
          "type": "address"
        },
        {
          "indexed": false,
          "internalType": "bool",
          "name": "approved",
          "type": "bool"
        }
      ],
      "name": "ApprovalForAll",
      "type": "event"
    },
    {
      "anonymous": false,
      "inputs": [
        {
          "indexed": true,
          "internalType": "address",
          "name": "from",
          "type": "address"
        },
        {
          "indexed": true,
          "internalType": "address",
          "name": "to",
          "type": "address"
        },
        {
          "indexed": true,
          "internalType": "uint256",
          "name": "tokenId",
          "type": "uint256"
        }
      ],
      "name": "Transfer",
      "type": "event"
    },
    {
      "inputs": [
        {
          "internalType": "address",
          "name": "to",
          "type": "address"
        },
        {
          "internalType": "uint256",
          "name": "tokenId",
          "type": "uint256"
        }
      ],
      "name": "approve",
      "outputs": [],
      "stateMutability": "nonpayable",
      "type": "function"
    },
    {
      "inputs": [
        {
          "internalType": "address",
          "name": "owner",
          "type": "address"
        }
      ],
      "name": "balanceOf",
      "outputs": [
        {
          "internalType": "uint256",
          "name": "",
          "type": "uint256"
        }
      ],
      "stateMutability": "view",
      "type": "function"
    },
    {
      "inputs": [
        {
          "internalType": "uint256",
          "name": "tokenId",
          "type": "uint256"
        }
      ],
      "name": "getApproved",
      "outputs": [
        {
          "internalType": "address",
          "name": "",
          "type": "address"
        }
      ],
      "stateMutability": "view",
      "type": "function"
    },
    {
      "inputs": [
        {
          "internalType": "address",
          "name": "owner",
          "type": "address"
        },
        {
          "internalType": "address",
          "name": "operator",
          "type": "address"
        }
      ],
      "name": "isApprovedForAll",
      "outputs": [
        {
          "internalType": "bool",
          "name": "",
          "type": "bool"
        }
      ],
      "stateMutability": "view",
      "type": "function"
    },
    {
      "inputs": [],
      "name": "name",
      "outputs": [
        {
          "internalType": "string",
          "name": "",
          "type": "string"
        }
      ],
      "stateMutability": "view",
      "type": "function"
    },
    {
      "inputs": [],
      "name": "nextOwnerToExplicitlySet",
      "outputs": [
        {
          "internalType": "uint256",
          "name": "",
          "type": "uint256"
        }
      ],
      "stateMutability": "view",
      "type": "function"
    },
    {
      "inputs": [
        {
          "internalType": "uint256",
          "name": "tokenId",
          "type": "uint256"
        }
      ],
      "name": "ownerOf",
      "outputs": [
        {
          "internalType": "address",
          "name": "",
          "type": "address"
        }
      ],
      "stateMutability": "view",
      "type": "function"
    },
    {
      "inputs": [
        {
          "internalType": "address",
          "name": "from",
          "type": "address"
        },
        {
          "internalType": "address",
          "name": "to",
          "type": "address"
        },
        {
          "internalType": "uint256",
          "name": "tokenId",
          "type": "uint256"
        }
      ],
      "name": "safeTransferFrom",
      "outputs": [],
      "stateMutability": "nonpayable",
      "type": "function"
    },
    {
      "inputs": [
        {
          "internalType": "address",
          "name": "from",
          "type": "address"
        },
        {
          "internalType": "address",
          "name": "to",
          "type": "address"
        },
        {
          "internalType": "uint256",
          "name": "tokenId",
          "type": "uint256"
        },
        {
          "internalType": "bytes",
          "name": "_data",
          "type": "bytes"
        }
      ],
      "name": "safeTransferFrom",
      "outputs": [],
      "stateMutability": "nonpayable",
      "type": "function"
    },
    {
      "inputs": [
        {
          "internalType": "address",
          "name": "operator",
          "type": "address"
        },
        {
          "internalType": "bool",
          "name": "approved",
          "type": "bool"
        }
      ],
      "name": "setApprovalForAll",
      "outputs": [],
      "stateMutability": "nonpayable",
      "type": "function"
    },
    {
      "inputs": [
        {
          "internalType": "bytes4",
          "name": "interfaceId",
          "type": "bytes4"
        }
      ],
      "name": "supportsInterface",
      "outputs": [
        {
          "internalType": "bool",
          "name": "",
          "type": "bool"
        }
      ],
      "stateMutability": "view",
      "type": "function"
    },
    {
      "inputs": [],
      "name": "symbol",
      "outputs": [
        {
          "internalType": "string",
          "name": "",
          "type": "string"
        }
      ],
      "stateMutability": "view",
      "type": "function"
    },
    {
      "inputs": [
        {
          "internalType": "uint256",
          "name": "index",
          "type": "uint256"
        }
      ],
      "name": "tokenByIndex",
      "outputs": [
        {
          "internalType": "uint256",
          "name": "",
          "type": "uint256"
        }
      ],
      "stateMutability": "view",
      "type": "function"
    },
    {
      "inputs": [
        {
          "internalType": "address",
          "name": "owner",
          "type": "address"
        },
        {
          "internalType": "uint256",
          "name": "index",
          "type": "uint256"
        }
      ],
      "name": "tokenOfOwnerByIndex",
      "outputs": [
        {
          "internalType": "uint256",
          "name": "",
          "type": "uint256"
        }
      ],
      "stateMutability": "view",
      "type": "function"
    },
    {
      "inputs": [
        {
          "internalType": "uint256",
          "name": "tokenId",
          "type": "uint256"
        }
      ],
      "name": "tokenURI",
      "outputs": [
        {
          "internalType": "string",
          "name": "",
          "type": "string"
        }
      ],
      "stateMutability": "view",
      "type": "function"
    },
    {
      "inputs": [],
      "name": "totalSupply",
      "outputs": [
        {
          "internalType": "uint256",
          "name": "",
          "type": "uint256"
        }
      ],
      "stateMutability": "view",
      "type": "function"
    },
    {
      "inputs": [
        {
          "internalType": "address",
          "name": "from",
          "type": "address"
        },
        {
          "internalType": "address",
          "name": "to",
          "type": "address"
        },
        {
          "internalType": "uint256",
          "name": "tokenId",
          "type": "uint256"
        }
      ],
      "name": "transferFrom",
      "outputs": [],
      "stateMutability": "nonpayable",
      "type": "function"
    }
  ],
  "bytecode": {
    "object": "0x60a0604052600160005560006007553480156200001b57600080fd5b50604051620019fa380380620019fa8339810160408190526200003e9162000192565b60008111620000a35760405162461bcd60e51b815260206004820152602760248201527f455243373231413a206d61782062617463682073697a65206d757374206265206044820152666e6f6e7a65726f60c81b606482015260840160405180910390fd5b6001620000b1848262000294565b506002620000c0838262000294565b5060805250620003609050565b634e487b7160e01b600052604160045260246000fd5b600082601f830112620000f557600080fd5b81516001600160401b0380821115620001125762000112620000cd565b604051601f8301601f19908116603f011681019082821181831017156200013d576200013d620000cd565b816040528381526020925086838588010111156200015a57600080fd5b600091505b838210156200017e57858201830151818301840152908201906200015f565b600093810190920192909252949350505050565b600080600060608486031215620001a857600080fd5b83516001600160401b0380821115620001c057600080fd5b620001ce87838801620000e3565b94506020860151915080821115620001e557600080fd5b50620001f486828701620000e3565b925050604084015190509250925092565b600181811c908216806200021a57607f821691505b6020821081036200023b57634e487b7160e01b600052602260045260246000fd5b50919050565b601f8211156200028f57600081815260208120601f850160051c810160208610156200026a5750805b601f850160051c820191505b818110156200028b5782815560010162000276565b5050505b505050565b81516001600160401b03811115620002b057620002b0620000cd565b620002c881620002c1845462000205565b8462000241565b602080601f831160018114620003005760008415620002e75750858301515b600019600386901b1c1916600185901b1785556200028b565b600085815260208120601f198616915b82811015620003315788860151825594840194600190910190840162000310565b5085821015620003505787850151600019600388901b60f8161c191681555b5050505050600190811b01905550565b6080516116776200038360003960008181610e490152610e7301526116776000f3fe608060405234801561001057600080fd5b506004361061010b5760003560e01c80634f6ccce7116100a2578063a22cb46511610071578063a22cb4651461021d578063b88d4fde14610230578063c87b56dd14610243578063d7224ba014610256578063e985e9c51461025f57600080fd5b80634f6ccce7146101dc5780636352211e146101ef57806370a082311461020257806395d89b411461021557600080fd5b806318160ddd116100de57806318160ddd1461018d57806323b872dd146101a35780632f745c59146101b657806342842e0e146101c957600080fd5b806301ffc9a71461011057806306fdde0314610138578063081812fc1461014d578063095ea7b314610178575b600080fd5b61012361011e36600461118d565b61029b565b60405190151581526020015b60405180910390f35b610140610308565b60405161012f91906111fa565b61016061015b36600461120d565b61039a565b6040516001600160a01b03909116815260200161012f565b61018b610186366004611242565b61042a565b005b610195610541565b60405190815260200161012f565b61018b6101b136600461126c565b610557565b6101956101c4366004611242565b610562565b61018b6101d736600461126c565b6106d8565b6101956101ea36600461120d565b6106f3565b6101606101fd36600461120d565b61075b565b6101956102103660046112a8565b61076d565b6101406107fe565b61018b61022b3660046112c3565b61080d565b61018b61023e366004611315565b6108d1565b61014061025136600461120d565b61090a565b61019560075481565b61012361026d3660046113f1565b6001600160a01b03918216600090815260066020908152604080832093909416825291909152205460ff1690565b60006001600160e01b031982166380ac58cd60e01b14806102cc57506001600160e01b03198216635b5e139f60e01b145b806102e757506001600160e01b0319821663780e9d6360e01b145b8061030257506301ffc9a760e01b6001600160e01b03198316145b92915050565b60606001805461031790611424565b80601f016020809104026020016040519081016040528092919081815260200182805461034390611424565b80156103905780601f1061036557610100808354040283529160200191610390565b820191906000526020600020905b81548152906001019060200180831161037357829003601f168201915b5050505050905090565b60006103a7826000541190565b61040e5760405162461bcd60e51b815260206004820152602d60248201527f455243373231413a20617070726f76656420717565727920666f72206e6f6e6560448201526c3c34b9ba32b73a103a37b5b2b760991b60648201526084015b60405180910390fd5b506000908152600560205260409020546001600160a01b031690565b60006104358261075b565b9050806001600160a01b0316836001600160a01b0316036104a35760405162461bcd60e51b815260206004820152602260248201527f455243373231413a20617070726f76616c20746f2063757272656e74206f776e60448201526132b960f11b6064820152608401610405565b336001600160a01b03821614806104bf57506104bf813361026d565b6105315760405162461bcd60e51b815260206004820152603960248201527f455243373231413a20617070726f76652063616c6c6572206973206e6f74206f60448201527f776e6572206e6f7220617070726f76656420666f7220616c6c000000000000006064820152608401610405565b61053c8383836109e4565b505050565b600060016000546105529190611474565b905090565b61053c838383610a40565b600061056d8361076d565b82106105c65760405162461bcd60e51b815260206004820152602260248201527f455243373231413a206f776e657220696e646578206f7574206f6620626f756e604482015261647360f01b6064820152608401610405565b60006105d0610541565b905060008060005b83811015610678576000818152600360209081526040918290208251808401909352546001600160a01b038116808452600160a01b90910467ffffffffffffffff16918301919091521561062b57805192505b876001600160a01b0316836001600160a01b031603610665578684036106575750935061030292505050565b8361066181611487565b9450505b508061067081611487565b9150506105d8565b5060405162461bcd60e51b815260206004820152602e60248201527f455243373231413a20756e61626c6520746f2067657420746f6b656e206f662060448201526d0deeedccae440c4f240d2dcc8caf60931b6064820152608401610405565b61053c838383604051806020016040528060008152506108d1565b60006106fd610541565b82106107575760405162461bcd60e51b815260206004820152602360248201527f455243373231413a20676c6f62616c20696e646578206f7574206f6620626f756044820152626e647360e81b6064820152608401610405565b5090565b600061076682610dc7565b5192915050565b60006001600160a01b0382166107d95760405162461bcd60e51b815260206004820152602b60248201527f455243373231413a2062616c616e636520717565727920666f7220746865207a60448201526a65726f206164647265737360a81b6064820152608401610405565b506001600160a01b03166000908152600460205260409020546001600160801b031690565b60606002805461031790611424565b336001600160a01b038316036108655760405162461bcd60e51b815260206004820152601a60248201527f455243373231413a20617070726f766520746f2063616c6c65720000000000006044820152606401610405565b3360008181526006602090815260408083206001600160a01b03871680855290835292819020805460ff191686151590811790915590519081529192917f17307eab39ab6107e8899845ad3d59bd9653f200f220920489ca2b5937696c31910160405180910390a35050565b6108dc848484610a40565b6108e884848484610f71565b6109045760405162461bcd60e51b8152600401610405906114a0565b50505050565b6060610917826000541190565b61097b5760405162461bcd60e51b815260206004820152602f60248201527f4552433732314d657461646174613a2055524920717565727920666f72206e6f60448201526e3732bc34b9ba32b73a103a37b5b2b760891b6064820152608401610405565b600061099260408051602081019091526000815290565b905060008151116109b257604051806020016040528060008152506109dd565b806109bc84611073565b6040516020016109cd9291906114f3565b6040516020818303038152906040525b9392505050565b60008281526005602052604080822080546001600160a01b0319166001600160a01b0387811691821790925591518593918516917f8c5be1e5ebec7d5bd14f71427d1e84f3dd0314c0f7b2291e5b200ac8c7c3b92591a4505050565b6000610a4b82610dc7565b80519091506000906001600160a01b0316336001600160a01b03161480610a82575033610a778461039a565b6001600160a01b0316145b80610a9457508151610a94903361026d565b905080610afe5760405162461bcd60e51b815260206004820152603260248201527f455243373231413a207472616e736665722063616c6c6572206973206e6f74206044820152711bdddb995c881b9bdc88185c1c1c9bdd995960721b6064820152608401610405565b846001600160a01b031682600001516001600160a01b031614610b725760405162461bcd60e51b815260206004820152602660248201527f455243373231413a207472616e736665722066726f6d20696e636f72726563746044820152651037bbb732b960d11b6064820152608401610405565b6001600160a01b038416610bd65760405162461bcd60e51b815260206004820152602560248201527f455243373231413a207472616e7366657220746f20746865207a65726f206164604482015264647265737360d81b6064820152608401610405565b610be660008484600001516109e4565b6001600160a01b0385166000908152600460205260408120805460019290610c189084906001600160801b0316611522565b82546101009290920a6001600160801b038181021990931691831602179091556001600160a01b03861660009081526004602052604081208054600194509092610c6491859116611549565b82546001600160801b039182166101009390930a9283029190920219909116179055506040805180820182526001600160a01b03808716825267ffffffffffffffff428116602080850191825260008981526003909152948520935184549151909216600160a01b026001600160e01b03199091169190921617179055610cec846001611569565b6000818152600360205260409020549091506001600160a01b0316610d7e57610d16816000541190565b15610d7e5760408051808201825284516001600160a01b03908116825260208087015167ffffffffffffffff9081168285019081526000878152600390935294909120925183549451909116600160a01b026001600160e01b03199094169116179190911790555b83856001600160a01b0316876001600160a01b03167fddf252ad1be2c89b69c2b068fc378daa952ba7f163c4a11628f55a4df523b3ef60405160405180910390a4505050505050565b6040805180820190915260008082526020820152610de6826000541190565b610e455760405162461bcd60e51b815260206004820152602a60248201527f455243373231413a206f776e657220717565727920666f72206e6f6e657869736044820152693a32b73a103a37b5b2b760b11b6064820152608401610405565b60007f00000000000000000000000000000000000000000000000000000000000000008310610ea657610e987f000000000000000000000000000000000000000000000000000000000000000084611474565b610ea3906001611569565b90505b825b818110610f10576000818152600360209081526040918290208251808401909352546001600160a01b038116808452600160a01b90910467ffffffffffffffff169183019190915215610efd57949350505050565b5080610f088161157c565b915050610ea8565b5060405162461bcd60e51b815260206004820152602f60248201527f455243373231413a20756e61626c6520746f2064657465726d696e652074686560448201526e1037bbb732b91037b3103a37b5b2b760891b6064820152608401610405565b60006001600160a01b0384163b1561106757604051630a85bd0160e11b81526001600160a01b0385169063150b7a0290610fb5903390899088908890600401611593565b6020604051808303816000875af1925050508015610ff0575060408051601f3d908101601f19168201909252610fed918101906115d0565b60015b61104d573d80801561101e576040519150601f19603f3d011682016040523d82523d6000602084013e611023565b606091505b5080516000036110455760405162461bcd60e51b8152600401610405906114a0565b805181602001fd5b6001600160e01b031916630a85bd0160e11b14905061106b565b5060015b949350505050565b60608160000361109a5750506040805180820190915260018152600360fc1b602082015290565b8160005b81156110c457806110ae81611487565b91506110bd9050600a83611603565b915061109e565b60008167ffffffffffffffff8111156110df576110df6112ff565b6040519080825280601f01601f191660200182016040528015611109576020820181803683370190505b5090505b841561106b5761111e600183611474565b915061112b600a86611617565b611136906030611569565b60f81b81838151811061114b5761114b61162b565b60200101906001600160f81b031916908160001a90535061116d600a86611603565b945061110d565b6001600160e01b03198116811461118a57600080fd5b50565b60006020828403121561119f57600080fd5b81356109dd81611174565b60005b838110156111c55781810151838201526020016111ad565b50506000910152565b600081518084526111e68160208601602086016111aa565b601f01601f19169290920160200192915050565b6020815260006109dd60208301846111ce565b60006020828403121561121f57600080fd5b5035919050565b80356001600160a01b038116811461123d57600080fd5b919050565b6000806040838503121561125557600080fd5b61125e83611226565b946020939093013593505050565b60008060006060848603121561128157600080fd5b61128a84611226565b925061129860208501611226565b9150604084013590509250925092565b6000602082840312156112ba57600080fd5b6109dd82611226565b600080604083850312156112d657600080fd5b6112df83611226565b9150602083013580151581146112f457600080fd5b809150509250929050565b634e487b7160e01b600052604160045260246000fd5b6000806000806080858703121561132b57600080fd5b61133485611226565b935061134260208601611226565b925060408501359150606085013567ffffffffffffffff8082111561136657600080fd5b818701915087601f83011261137a57600080fd5b81358181111561138c5761138c6112ff565b604051601f8201601f19908116603f011681019083821181831017156113b4576113b46112ff565b816040528281528a60208487010111156113cd57600080fd5b82602086016020830137600060208483010152809550505050505092959194509250565b6000806040838503121561140457600080fd5b61140d83611226565b915061141b60208401611226565b90509250929050565b600181811c9082168061143857607f821691505b60208210810361145857634e487b7160e01b600052602260045260246000fd5b50919050565b634e487b7160e01b600052601160045260246000fd5b818103818111156103025761030261145e565b6000600182016114995761149961145e565b5060010190565b60208082526033908201527f455243373231413a207472616e7366657220746f206e6f6e204552433732315260408201527232b1b2b4bb32b91034b6b83632b6b2b73a32b960691b606082015260800190565b600083516115058184602088016111aa565b8351908301906115198183602088016111aa565b01949350505050565b6001600160801b038281168282160390808211156115425761154261145e565b5092915050565b6001600160801b038181168382160190808211156115425761154261145e565b808201808211156103025761030261145e565b60008161158b5761158b61145e565b506000190190565b6001600160a01b03858116825284166020820152604081018390526080606082018190526000906115c6908301846111ce565b9695505050505050565b6000602082840312156115e257600080fd5b81516109dd81611174565b634e487b7160e01b600052601260045260246000fd5b600082611612576116126115ed565b500490565b600082611626576116266115ed565b500690565b634e487b7160e01b600052603260045260246000fdfea2646970667358221220bc77785d91b9f4819ecf4f185fbc0d00aa452a4411bf55f06021bea175c0e9c164736f6c63430008100033",
    "linkReferences": {}
  },
  "methodIdentifiers": {
    "approve(address,uint256)": "095ea7b3",
    "balanceOf(address)": "70a08231",
    "getApproved(uint256)": "081812fc",
    "isApprovedForAll(address,address)": "e985e9c5",
    "name()": "06fdde03",
    "nextOwnerToExplicitlySet()": "d7224ba0",
    "ownerOf(uint256)": "6352211e",
    "safeTransferFrom(address,address,uint256)": "42842e0e",
    "safeTransferFrom(address,address,uint256,bytes)": "b88d4fde",
    "setApprovalForAll(address,bool)": "a22cb465",
    "supportsInterface(bytes4)": "01ffc9a7",
    "symbol()": "95d89b41",
    "tokenByIndex(uint256)": "4f6ccce7",
    "tokenOfOwnerByIndex(address,uint256)": "2f745c59",
    "tokenURI(uint256)": "c87b56dd",
    "totalSupply()": "18160ddd",
    "transferFrom(address,address,uint256)": "23b872dd"
  },
  "id": 10
}