{
  "abi": [
    {
      "inputs": [
        {
          "internalType": "string",
          "name": "name_",
          "type": "string"
        },
        {
          "internalType": "string",
          "name": "symbol_",
          "type": "string"
        },
        {
          "internalType": "uint256",
          "name": "maxBatchSize_",
          "type": "uint256"
        }
      ],
      "stateMutability": "nonpayable",
      "type": "constructor"
    },
    {
      "anonymous": false,
      "inputs": [
        {
          "indexed": true,
          "internalType": "address",
          "name": "owner",
          "type": "address"
        },
        {
          "indexed": true,
          "internalType": "address",
          "name": "approved",
          "type": "address"
        },
        {
          "indexed": true,
          "internalType": "uint256",
          "name": "tokenId",
          "type": "uint256"
        }
      ],
      "name": "Approval",
      "type": "event"
    },
    {
      "anonymous": false,
      "inputs": [
        {
          "indexed": true,
          "internalType": "address",
          "name": "owner",
          "type": "address"
        },
        {
          "indexed": true,
          "internalType": "address",
          "name": "operator",
          "type": "address"
        },
        {
          "indexed": false,
          "internalType": "bool",
          "name": "approved",
          "type": "bool"
        }
      ],
      "name": "ApprovalForAll",
      "type": "event"
    },
    {
      "anonymous": false,
      "inputs": [
        {
          "indexed": true,
          "internalType": "address",
          "name": "from",
          "type": "address"
        },
        {
          "indexed": true,
          "internalType": "address",
          "name": "to",
          "type": "address"
        },
        {
          "indexed": true,
          "internalType": "uint256",
          "name": "tokenId",
          "type": "uint256"
        }
      ],
      "name": "Transfer",
      "type": "event"
    },
    {
      "inputs": [
        {
          "internalType": "address",
          "name": "to",
          "type": "address"
        },
        {
          "internalType": "uint256",
          "name": "tokenId",
          "type": "uint256"
        }
      ],
      "name": "approve",
      "outputs": [],
      "stateMutability": "nonpayable",
      "type": "function"
    },
    {
      "inputs": [
        {
          "internalType": "address",
          "name": "owner",
          "type": "address"
        }
      ],
      "name": "balanceOf",
      "outputs": [
        {
          "internalType": "uint256",
          "name": "",
          "type": "uint256"
        }
      ],
      "stateMutability": "view",
      "type": "function"
    },
    {
      "inputs": [
        {
          "internalType": "uint256",
          "name": "tokenId",
          "type": "uint256"
        }
      ],
      "name": "getApproved",
      "outputs": [
        {
          "internalType": "address",
          "name": "",
          "type": "address"
        }
      ],
      "stateMutability": "view",
      "type": "function"
    },
    {
      "inputs": [
        {
          "internalType": "address",
          "name": "owner",
          "type": "address"
        },
        {
          "internalType": "address",
          "name": "operator",
          "type": "address"
        }
      ],
      "name": "isApprovedForAll",
      "outputs": [
        {
          "internalType": "bool",
          "name": "",
          "type": "bool"
        }
      ],
      "stateMutability": "view",
      "type": "function"
    },
    {
      "inputs": [],
      "name": "name",
      "outputs": [
        {
          "internalType": "string",
          "name": "",
          "type": "string"
        }
      ],
      "stateMutability": "view",
      "type": "function"
    },
    {
      "inputs": [],
      "name": "nextOwnerToExplicitlySet",
      "outputs": [
        {
          "internalType": "uint256",
          "name": "",
          "type": "uint256"
        }
      ],
      "stateMutability": "view",
      "type": "function"
    },
    {
      "inputs": [
        {
          "internalType": "uint256",
          "name": "tokenId",
          "type": "uint256"
        }
      ],
      "name": "ownerOf",
      "outputs": [
        {
          "internalType": "address",
          "name": "",
          "type": "address"
        }
      ],
      "stateMutability": "view",
      "type": "function"
    },
    {
      "inputs": [
        {
          "internalType": "address",
          "name": "from",
          "type": "address"
        },
        {
          "internalType": "address",
          "name": "to",
          "type": "address"
        },
        {
          "internalType": "uint256",
          "name": "tokenId",
          "type": "uint256"
        }
      ],
      "name": "safeTransferFrom",
      "outputs": [],
      "stateMutability": "nonpayable",
      "type": "function"
    },
    {
      "inputs": [
        {
          "internalType": "address",
          "name": "from",
          "type": "address"
        },
        {
          "internalType": "address",
          "name": "to",
          "type": "address"
        },
        {
          "internalType": "uint256",
          "name": "tokenId",
          "type": "uint256"
        },
        {
          "internalType": "bytes",
          "name": "_data",
          "type": "bytes"
        }
      ],
      "name": "safeTransferFrom",
      "outputs": [],
      "stateMutability": "nonpayable",
      "type": "function"
    },
    {
      "inputs": [
        {
          "internalType": "address",
          "name": "operator",
          "type": "address"
        },
        {
          "internalType": "bool",
          "name": "approved",
          "type": "bool"
        }
      ],
      "name": "setApprovalForAll",
      "outputs": [],
      "stateMutability": "nonpayable",
      "type": "function"
    },
    {
      "inputs": [
        {
          "internalType": "bytes4",
          "name": "interfaceId",
          "type": "bytes4"
        }
      ],
      "name": "supportsInterface",
      "outputs": [
        {
          "internalType": "bool",
          "name": "",
          "type": "bool"
        }
      ],
      "stateMutability": "view",
      "type": "function"
    },
    {
      "inputs": [],
      "name": "symbol",
      "outputs": [
        {
          "internalType": "string",
          "name": "",
          "type": "string"
        }
      ],
      "stateMutability": "view",
      "type": "function"
    },
    {
      "inputs": [
        {
          "internalType": "uint256",
          "name": "index",
          "type": "uint256"
        }
      ],
      "name": "tokenByIndex",
      "outputs": [
        {
          "internalType": "uint256",
          "name": "",
          "type": "uint256"
        }
      ],
      "stateMutability": "view",
      "type": "function"
    },
    {
      "inputs": [
        {
          "internalType": "address",
          "name": "owner",
          "type": "address"
        },
        {
          "internalType": "uint256",
          "name": "index",
          "type": "uint256"
        }
      ],
      "name": "tokenOfOwnerByIndex",
      "outputs": [
        {
          "internalType": "uint256",
          "name": "",
          "type": "uint256"
        }
      ],
      "stateMutability": "view",
      "type": "function"
    },
    {
      "inputs": [
        {
          "internalType": "uint256",
          "name": "tokenId",
          "type": "uint256"
        }
      ],
      "name": "tokenURI",
      "outputs": [
        {
          "internalType": "string",
          "name": "",
          "type": "string"
        }
      ],
      "stateMutability": "view",
      "type": "function"
    },
    {
      "inputs": [],
      "name": "totalSupply",
      "outputs": [
        {
          "internalType": "uint256",
          "name": "",
          "type": "uint256"
        }
      ],
      "stateMutability": "view",
      "type": "function"
    },
    {
      "inputs": [
        {
          "internalType": "address",
          "name": "from",
          "type": "address"
        },
        {
          "internalType": "address",
          "name": "to",
          "type": "address"
        },
        {
          "internalType": "uint256",
          "name": "tokenId",
          "type": "uint256"
        }
      ],
      "name": "transferFrom",
      "outputs": [],
      "stateMutability": "nonpayable",
      "type": "function"
    }
  ],
  "bytecode": {
    "object": "0x60a0604052600160005560006007553480156200001b57600080fd5b50604051620019ad380380620019ad8339810160408190526200003e916200024e565b60008111620000a35760405162461bcd60e51b815260206004820152602760248201527f455243373231413a206d61782062617463682073697a65206d757374206265206044820152666e6f6e7a65726f60c81b606482015260840160405180910390fd5b8251620000b8906001906020860190620000db565b508151620000ce906002906020850190620000db565b5060805250620002fe9050565b828054620000e990620002c1565b90600052602060002090601f0160209004810192826200010d576000855562000158565b82601f106200012857805160ff191683800117855562000158565b8280016001018555821562000158579182015b82811115620001585782518255916020019190600101906200013b565b50620001669291506200016a565b5090565b5b808211156200016657600081556001016200016b565b634e487b7160e01b600052604160045260246000fd5b600082601f830112620001a957600080fd5b81516001600160401b0380821115620001c657620001c662000181565b604051601f8301601f19908116603f01168101908282118183101715620001f157620001f162000181565b816040528381526020925086838588010111156200020e57600080fd5b600091505b8382101562000232578582018301518183018401529082019062000213565b83821115620002445760008385830101525b9695505050505050565b6000806000606084860312156200026457600080fd5b83516001600160401b03808211156200027c57600080fd5b6200028a8783880162000197565b94506020860151915080821115620002a157600080fd5b50620002b08682870162000197565b925050604084015190509250925092565b600181811c90821680620002d657607f821691505b60208210811415620002f857634e487b7160e01b600052602260045260246000fd5b50919050565b60805161168c6200032160003960008181610e4d0152610e77015261168c6000f3fe608060405234801561001057600080fd5b506004361061010b5760003560e01c80634f6ccce7116100a2578063a22cb46511610071578063a22cb4651461021d578063b88d4fde14610230578063c87b56dd14610243578063d7224ba014610256578063e985e9c51461025f57600080fd5b80634f6ccce7146101dc5780636352211e146101ef57806370a082311461020257806395d89b411461021557600080fd5b806318160ddd116100de57806318160ddd1461018d57806323b872dd146101a35780632f745c59146101b657806342842e0e146101c957600080fd5b806301ffc9a71461011057806306fdde0314610138578063081812fc1461014d578063095ea7b314610178575b600080fd5b61012361011e36600461118b565b61029b565b60405190151581526020015b60405180910390f35b610140610308565b60405161012f9190611200565b61016061015b366004611213565b61039a565b6040516001600160a01b03909116815260200161012f565b61018b610186366004611248565b61042a565b005b610195610542565b60405190815260200161012f565b61018b6101b1366004611272565b610558565b6101956101c4366004611248565b610563565b61018b6101d7366004611272565b6106db565b6101956101ea366004611213565b6106f6565b6101606101fd366004611213565b61075e565b6101956102103660046112ae565b610770565b610140610801565b61018b61022b3660046112c9565b610810565b61018b61023e36600461131b565b6108d5565b610140610251366004611213565b61090e565b61019560075481565b61012361026d3660046113f7565b6001600160a01b03918216600090815260066020908152604080832093909416825291909152205460ff1690565b60006001600160e01b031982166380ac58cd60e01b14806102cc57506001600160e01b03198216635b5e139f60e01b145b806102e757506001600160e01b0319821663780e9d6360e01b145b8061030257506301ffc9a760e01b6001600160e01b03198316145b92915050565b6060600180546103179061142a565b80601f01602080910402602001604051908101604052809291908181526020018280546103439061142a565b80156103905780601f1061036557610100808354040283529160200191610390565b820191906000526020600020905b81548152906001019060200180831161037357829003601f168201915b5050505050905090565b60006103a7826000541190565b61040e5760405162461bcd60e51b815260206004820152602d60248201527f455243373231413a20617070726f76656420717565727920666f72206e6f6e6560448201526c3c34b9ba32b73a103a37b5b2b760991b60648201526084015b60405180910390fd5b506000908152600560205260409020546001600160a01b031690565b60006104358261075e565b9050806001600160a01b0316836001600160a01b031614156104a45760405162461bcd60e51b815260206004820152602260248201527f455243373231413a20617070726f76616c20746f2063757272656e74206f776e60448201526132b960f11b6064820152608401610405565b336001600160a01b03821614806104c057506104c0813361026d565b6105325760405162461bcd60e51b815260206004820152603960248201527f455243373231413a20617070726f76652063616c6c6572206973206e6f74206f60448201527f776e6572206e6f7220617070726f76656420666f7220616c6c000000000000006064820152608401610405565b61053d8383836109e8565b505050565b60006001600054610553919061147b565b905090565b61053d838383610a44565b600061056e83610770565b82106105c75760405162461bcd60e51b815260206004820152602260248201527f455243373231413a206f776e657220696e646578206f7574206f6620626f756e604482015261647360f01b6064820152608401610405565b60006105d1610542565b905060008060005b8381101561067b576000818152600360209081526040918290208251808401909352546001600160a01b038116808452600160a01b90910467ffffffffffffffff16918301919091521561062c57805192505b876001600160a01b0316836001600160a01b03161415610668578684141561065a5750935061030292505050565b8361066481611492565b9450505b508061067381611492565b9150506105d9565b5060405162461bcd60e51b815260206004820152602e60248201527f455243373231413a20756e61626c6520746f2067657420746f6b656e206f662060448201526d0deeedccae440c4f240d2dcc8caf60931b6064820152608401610405565b61053d838383604051806020016040528060008152506108d5565b6000610700610542565b821061075a5760405162461bcd60e51b815260206004820152602360248201527f455243373231413a20676c6f62616c20696e646578206f7574206f6620626f756044820152626e647360e81b6064820152608401610405565b5090565b600061076982610dcb565b5192915050565b60006001600160a01b0382166107dc5760405162461bcd60e51b815260206004820152602b60248201527f455243373231413a2062616c616e636520717565727920666f7220746865207a60448201526a65726f206164647265737360a81b6064820152608401610405565b506001600160a01b03166000908152600460205260409020546001600160801b031690565b6060600280546103179061142a565b6001600160a01b0382163314156108695760405162461bcd60e51b815260206004820152601a60248201527f455243373231413a20617070726f766520746f2063616c6c65720000000000006044820152606401610405565b3360008181526006602090815260408083206001600160a01b03871680855290835292819020805460ff191686151590811790915590519081529192917f17307eab39ab6107e8899845ad3d59bd9653f200f220920489ca2b5937696c31910160405180910390a35050565b6108e0848484610a44565b6108ec84848484610f75565b6109085760405162461bcd60e51b8152600401610405906114ad565b50505050565b606061091b826000541190565b61097f5760405162461bcd60e51b815260206004820152602f60248201527f4552433732314d657461646174613a2055524920717565727920666f72206e6f60448201526e3732bc34b9ba32b73a103a37b5b2b760891b6064820152608401610405565b600061099660408051602081019091526000815290565b905060008151116109b657604051806020016040528060008152506109e1565b806109c084611074565b6040516020016109d1929190611500565b6040516020818303038152906040525b9392505050565b60008281526005602052604080822080546001600160a01b0319166001600160a01b0387811691821790925591518593918516917f8c5be1e5ebec7d5bd14f71427d1e84f3dd0314c0f7b2291e5b200ac8c7c3b92591a4505050565b6000610a4f82610dcb565b80519091506000906001600160a01b0316336001600160a01b03161480610a86575033610a7b8461039a565b6001600160a01b0316145b80610a9857508151610a98903361026d565b905080610b025760405162461bcd60e51b815260206004820152603260248201527f455243373231413a207472616e736665722063616c6c6572206973206e6f74206044820152711bdddb995c881b9bdc88185c1c1c9bdd995960721b6064820152608401610405565b846001600160a01b031682600001516001600160a01b031614610b765760405162461bcd60e51b815260206004820152602660248201527f455243373231413a207472616e736665722066726f6d20696e636f72726563746044820152651037bbb732b960d11b6064820152608401610405565b6001600160a01b038416610bda5760405162461bcd60e51b815260206004820152602560248201527f455243373231413a207472616e7366657220746f20746865207a65726f206164604482015264647265737360d81b6064820152608401610405565b610bea60008484600001516109e8565b6001600160a01b0385166000908152600460205260408120805460019290610c1c9084906001600160801b031661152f565b82546101009290920a6001600160801b038181021990931691831602179091556001600160a01b03861660009081526004602052604081208054600194509092610c6891859116611557565b82546001600160801b039182166101009390930a9283029190920219909116179055506040805180820182526001600160a01b03808716825267ffffffffffffffff428116602080850191825260008981526003909152948520935184549151909216600160a01b026001600160e01b03199091169190921617179055610cf0846001611579565b6000818152600360205260409020549091506001600160a01b0316610d8257610d1a816000541190565b15610d825760408051808201825284516001600160a01b03908116825260208087015167ffffffffffffffff9081168285019081526000878152600390935294909120925183549451909116600160a01b026001600160e01b03199094169116179190911790555b83856001600160a01b0316876001600160a01b03167fddf252ad1be2c89b69c2b068fc378daa952ba7f163c4a11628f55a4df523b3ef60405160405180910390a4505050505050565b6040805180820190915260008082526020820152610dea826000541190565b610e495760405162461bcd60e51b815260206004820152602a60248201527f455243373231413a206f776e657220717565727920666f72206e6f6e657869736044820152693a32b73a103a37b5b2b760b11b6064820152608401610405565b60007f00000000000000000000000000000000000000000000000000000000000000008310610eaa57610e9c7f00000000000000000000000000000000000000000000000000000000000000008461147b565b610ea7906001611579565b90505b825b818110610f14576000818152600360209081526040918290208251808401909352546001600160a01b038116808452600160a01b90910467ffffffffffffffff169183019190915215610f0157949350505050565b5080610f0c81611591565b915050610eac565b5060405162461bcd60e51b815260206004820152602f60248201527f455243373231413a20756e61626c6520746f2064657465726d696e652074686560448201526e1037bbb732b91037b3103a37b5b2b760891b6064820152608401610405565b60006001600160a01b0384163b1561106857604051630a85bd0160e11b81526001600160a01b0385169063150b7a0290610fb99033908990889088906004016115a8565b6020604051808303816000875af1925050508015610ff4575060408051601f3d908101601f19168201909252610ff1918101906115e5565b60015b61104e573d808015611022576040519150601f19603f3d011682016040523d82523d6000602084013e611027565b606091505b5080516110465760405162461bcd60e51b8152600401610405906114ad565b805181602001fd5b6001600160e01b031916630a85bd0160e11b14905061106c565b5060015b949350505050565b6060816110985750506040805180820190915260018152600360fc1b602082015290565b8160005b81156110c257806110ac81611492565b91506110bb9050600a83611618565b915061109c565b60008167ffffffffffffffff8111156110dd576110dd611305565b6040519080825280601f01601f191660200182016040528015611107576020820181803683370190505b5090505b841561106c5761111c60018361147b565b9150611129600a8661162c565b611134906030611579565b60f81b81838151811061114957611149611640565b60200101906001600160f81b031916908160001a90535061116b600a86611618565b945061110b565b6001600160e01b03198116811461118857600080fd5b50565b60006020828403121561119d57600080fd5b81356109e181611172565b60005b838110156111c35781810151838201526020016111ab565b838111156109085750506000910152565b600081518084526111ec8160208601602086016111a8565b601f01601f19169290920160200192915050565b6020815260006109e160208301846111d4565b60006020828403121561122557600080fd5b5035919050565b80356001600160a01b038116811461124357600080fd5b919050565b6000806040838503121561125b57600080fd5b6112648361122c565b946020939093013593505050565b60008060006060848603121561128757600080fd5b6112908461122c565b925061129e6020850161122c565b9150604084013590509250925092565b6000602082840312156112c057600080fd5b6109e18261122c565b600080604083850312156112dc57600080fd5b6112e58361122c565b9150602083013580151581146112fa57600080fd5b809150509250929050565b634e487b7160e01b600052604160045260246000fd5b6000806000806080858703121561133157600080fd5b61133a8561122c565b93506113486020860161122c565b925060408501359150606085013567ffffffffffffffff8082111561136c57600080fd5b818701915087601f83011261138057600080fd5b81358181111561139257611392611305565b604051601f8201601f19908116603f011681019083821181831017156113ba576113ba611305565b816040528281528a60208487010111156113d357600080fd5b82602086016020830137600060208483010152809550505050505092959194509250565b6000806040838503121561140a57600080fd5b6114138361122c565b91506114216020840161122c565b90509250929050565b600181811c9082168061143e57607f821691505b6020821081141561145f57634e487b7160e01b600052602260045260246000fd5b50919050565b634e487b7160e01b600052601160045260246000fd5b60008282101561148d5761148d611465565b500390565b60006000198214156114a6576114a6611465565b5060010190565b60208082526033908201527f455243373231413a207472616e7366657220746f206e6f6e204552433732315260408201527232b1b2b4bb32b91034b6b83632b6b2b73a32b960691b606082015260800190565b600083516115128184602088016111a8565b8351908301906115268183602088016111a8565b01949350505050565b60006001600160801b038381169083168181101561154f5761154f611465565b039392505050565b60006001600160801b0380831681851680830382111561152657611526611465565b6000821982111561158c5761158c611465565b500190565b6000816115a0576115a0611465565b506000190190565b6001600160a01b03858116825284166020820152604081018390526080606082018190526000906115db908301846111d4565b9695505050505050565b6000602082840312156115f757600080fd5b81516109e181611172565b634e487b7160e01b600052601260045260246000fd5b60008261162757611627611602565b500490565b60008261163b5761163b611602565b500690565b634e487b7160e01b600052603260045260246000fdfea26469706673582212200d5cc624bb48014c1d6544dbef2ce2d1887e8fac5f8d9a1c200b8da54f19280464736f6c634300080a0033",
    "linkReferences": {}
  },
  "methodIdentifiers": {
    "approve(address,uint256)": "095ea7b3",
    "balanceOf(address)": "70a08231",
    "getApproved(uint256)": "081812fc",
    "isApprovedForAll(address,address)": "e985e9c5",
    "name()": "06fdde03",
    "nextOwnerToExplicitlySet()": "d7224ba0",
    "ownerOf(uint256)": "6352211e",
    "safeTransferFrom(address,address,uint256)": "42842e0e",
    "safeTransferFrom(address,address,uint256,bytes)": "b88d4fde",
    "setApprovalForAll(address,bool)": "a22cb465",
    "supportsInterface(bytes4)": "01ffc9a7",
    "symbol()": "95d89b41",
    "tokenByIndex(uint256)": "4f6ccce7",
    "tokenOfOwnerByIndex(address,uint256)": "2f745c59",
    "tokenURI(uint256)": "c87b56dd",
    "totalSupply()": "18160ddd",
    "transferFrom(address,address,uint256)": "23b872dd"
  },
  "id": 4
}