{
  "abi": [
    {
      "inputs": [
        {
          "internalType": "string",
          "name": "name_",
          "type": "string"
        },
        {
          "internalType": "string",
          "name": "symbol_",
          "type": "string"
        },
        {
          "internalType": "uint256",
          "name": "maxBatchSize_",
          "type": "uint256"
        },
        {
          "internalType": "address",
          "name": "royaltyRecipient",
          "type": "address"
        },
        {
          "internalType": "uint256",
          "name": "royaltyValue",
          "type": "uint256"
        }
      ],
      "stateMutability": "nonpayable",
      "type": "constructor"
    },
    {
      "anonymous": false,
      "inputs": [
        {
          "indexed": true,
          "internalType": "address",
          "name": "owner",
          "type": "address"
        },
        {
          "indexed": true,
          "internalType": "address",
          "name": "approved",
          "type": "address"
        },
        {
          "indexed": true,
          "internalType": "uint256",
          "name": "tokenId",
          "type": "uint256"
        }
      ],
      "name": "Approval",
      "type": "event"
    },
    {
      "anonymous": false,
      "inputs": [
        {
          "indexed": true,
          "internalType": "address",
          "name": "owner",
          "type": "address"
        },
        {
          "indexed": true,
          "internalType": "address",
          "name": "operator",
          "type": "address"
        },
        {
          "indexed": false,
          "internalType": "bool",
          "name": "approved",
          "type": "bool"
        }
      ],
      "name": "ApprovalForAll",
      "type": "event"
    },
    {
      "anonymous": false,
      "inputs": [
        {
          "indexed": true,
          "internalType": "address",
          "name": "previousOwner",
          "type": "address"
        },
        {
          "indexed": true,
          "internalType": "address",
          "name": "newOwner",
          "type": "address"
        }
      ],
      "name": "OwnershipTransferred",
      "type": "event"
    },
    {
      "anonymous": false,
      "inputs": [
        {
          "indexed": true,
          "internalType": "address",
          "name": "from",
          "type": "address"
        },
        {
          "indexed": true,
          "internalType": "address",
          "name": "to",
          "type": "address"
        },
        {
          "indexed": true,
          "internalType": "uint256",
          "name": "tokenId",
          "type": "uint256"
        }
      ],
      "name": "Transfer",
      "type": "event"
    },
    {
      "inputs": [
        {
          "internalType": "address",
          "name": "to",
          "type": "address"
        },
        {
          "internalType": "uint256",
          "name": "tokenId",
          "type": "uint256"
        }
      ],
      "name": "approve",
      "outputs": [],
      "stateMutability": "nonpayable",
      "type": "function"
    },
    {
      "inputs": [
        {
          "internalType": "address",
          "name": "owner",
          "type": "address"
        }
      ],
      "name": "balanceOf",
      "outputs": [
        {
          "internalType": "uint256",
          "name": "",
          "type": "uint256"
        }
      ],
      "stateMutability": "view",
      "type": "function"
    },
    {
      "inputs": [
        {
          "internalType": "uint256",
          "name": "tokenId",
          "type": "uint256"
        }
      ],
      "name": "getApproved",
      "outputs": [
        {
          "internalType": "address",
          "name": "",
          "type": "address"
        }
      ],
      "stateMutability": "view",
      "type": "function"
    },
    {
      "inputs": [
        {
          "internalType": "address",
          "name": "owner",
          "type": "address"
        },
        {
          "internalType": "address",
          "name": "operator",
          "type": "address"
        }
      ],
      "name": "isApprovedForAll",
      "outputs": [
        {
          "internalType": "bool",
          "name": "",
          "type": "bool"
        }
      ],
      "stateMutability": "view",
      "type": "function"
    },
    {
      "inputs": [],
      "name": "name",
      "outputs": [
        {
          "internalType": "string",
          "name": "",
          "type": "string"
        }
      ],
      "stateMutability": "view",
      "type": "function"
    },
    {
      "inputs": [],
      "name": "nextOwnerToExplicitlySet",
      "outputs": [
        {
          "internalType": "uint256",
          "name": "",
          "type": "uint256"
        }
      ],
      "stateMutability": "view",
      "type": "function"
    },
    {
      "inputs": [],
      "name": "owner",
      "outputs": [
        {
          "internalType": "address",
          "name": "",
          "type": "address"
        }
      ],
      "stateMutability": "view",
      "type": "function"
    },
    {
      "inputs": [
        {
          "internalType": "uint256",
          "name": "tokenId",
          "type": "uint256"
        }
      ],
      "name": "ownerOf",
      "outputs": [
        {
          "internalType": "address",
          "name": "",
          "type": "address"
        }
      ],
      "stateMutability": "view",
      "type": "function"
    },
    {
      "inputs": [],
      "name": "renounceOwnership",
      "outputs": [],
      "stateMutability": "nonpayable",
      "type": "function"
    },
    {
      "inputs": [
        {
          "internalType": "uint256",
          "name": "",
          "type": "uint256"
        },
        {
          "internalType": "uint256",
          "name": "value",
          "type": "uint256"
        }
      ],
      "name": "royaltyInfo",
      "outputs": [
        {
          "internalType": "address",
          "name": "receiver",
          "type": "address"
        },
        {
          "internalType": "uint256",
          "name": "royaltyAmount",
          "type": "uint256"
        }
      ],
      "stateMutability": "view",
      "type": "function"
    },
    {
      "inputs": [
        {
          "internalType": "address",
          "name": "from",
          "type": "address"
        },
        {
          "internalType": "address",
          "name": "to",
          "type": "address"
        },
        {
          "internalType": "uint256",
          "name": "tokenId",
          "type": "uint256"
        }
      ],
      "name": "safeTransferFrom",
      "outputs": [],
      "stateMutability": "nonpayable",
      "type": "function"
    },
    {
      "inputs": [
        {
          "internalType": "address",
          "name": "from",
          "type": "address"
        },
        {
          "internalType": "address",
          "name": "to",
          "type": "address"
        },
        {
          "internalType": "uint256",
          "name": "tokenId",
          "type": "uint256"
        },
        {
          "internalType": "bytes",
          "name": "_data",
          "type": "bytes"
        }
      ],
      "name": "safeTransferFrom",
      "outputs": [],
      "stateMutability": "nonpayable",
      "type": "function"
    },
    {
      "inputs": [
        {
          "internalType": "address",
          "name": "operator",
          "type": "address"
        },
        {
          "internalType": "bool",
          "name": "approved",
          "type": "bool"
        }
      ],
      "name": "setApprovalForAll",
      "outputs": [],
      "stateMutability": "nonpayable",
      "type": "function"
    },
    {
      "inputs": [
        {
          "internalType": "bytes4",
          "name": "interfaceId",
          "type": "bytes4"
        }
      ],
      "name": "supportsInterface",
      "outputs": [
        {
          "internalType": "bool",
          "name": "",
          "type": "bool"
        }
      ],
      "stateMutability": "view",
      "type": "function"
    },
    {
      "inputs": [],
      "name": "symbol",
      "outputs": [
        {
          "internalType": "string",
          "name": "",
          "type": "string"
        }
      ],
      "stateMutability": "view",
      "type": "function"
    },
    {
      "inputs": [
        {
          "internalType": "uint256",
          "name": "index",
          "type": "uint256"
        }
      ],
      "name": "tokenByIndex",
      "outputs": [
        {
          "internalType": "uint256",
          "name": "",
          "type": "uint256"
        }
      ],
      "stateMutability": "view",
      "type": "function"
    },
    {
      "inputs": [
        {
          "internalType": "address",
          "name": "owner",
          "type": "address"
        },
        {
          "internalType": "uint256",
          "name": "index",
          "type": "uint256"
        }
      ],
      "name": "tokenOfOwnerByIndex",
      "outputs": [
        {
          "internalType": "uint256",
          "name": "",
          "type": "uint256"
        }
      ],
      "stateMutability": "view",
      "type": "function"
    },
    {
      "inputs": [
        {
          "internalType": "uint256",
          "name": "tokenId",
          "type": "uint256"
        }
      ],
      "name": "tokenURI",
      "outputs": [
        {
          "internalType": "string",
          "name": "",
          "type": "string"
        }
      ],
      "stateMutability": "view",
      "type": "function"
    },
    {
      "inputs": [],
      "name": "totalSupply",
      "outputs": [
        {
          "internalType": "uint256",
          "name": "",
          "type": "uint256"
        }
      ],
      "stateMutability": "view",
      "type": "function"
    },
    {
      "inputs": [
        {
          "internalType": "address",
          "name": "from",
          "type": "address"
        },
        {
          "internalType": "address",
          "name": "to",
          "type": "address"
        },
        {
          "internalType": "uint256",
          "name": "tokenId",
          "type": "uint256"
        }
      ],
      "name": "transferFrom",
      "outputs": [],
      "stateMutability": "nonpayable",
      "type": "function"
    },
    {
      "inputs": [
        {
          "internalType": "address",
          "name": "newOwner",
          "type": "address"
        }
      ],
      "name": "transferOwnership",
      "outputs": [],
      "stateMutability": "nonpayable",
      "type": "function"
    },
    {
      "inputs": [
        {
          "internalType": "address",
          "name": "recipient",
          "type": "address"
        },
        {
          "internalType": "uint256",
          "name": "value",
          "type": "uint256"
        }
      ],
      "name": "updateRoyalties",
      "outputs": [],
      "stateMutability": "nonpayable",
      "type": "function"
    }
  ],
  "bytecode": {
    "object": "0x60a06040526001805560006008553480156200001a57600080fd5b5060405162001e7538038062001e758339810160408190526200003d916200035b565b8484846200004b33620000fa565b60008111620000b15760405162461bcd60e51b815260206004820152602760248201527f455243373231413a206d61782062617463682073697a65206d757374206265206044820152666e6f6e7a65726f60c81b60648201526084015b60405180910390fd5b8251620000c6906002906020860190620001e8565b508151620000dc906003906020850190620001e8565b5060805250620000ef905082826200014a565b505050505062000439565b600080546001600160a01b038381166001600160a01b0319831681178455604051919092169283917f8be0079c531659141344cd1fd0a4f28419497f9722a3daafe3b4186f6b6457e09190a35050565b6127108111156200019e5760405162461bcd60e51b815260206004820152601a60248201527f45524332393831526f79616c746965733a20546f6f20686967680000000000006044820152606401620000a8565b604080518082019091526001600160a01b0390921680835262ffffff909116602090920182905260098054600160a01b9093026001600160b81b0319909316909117919091179055565b828054620001f690620003fc565b90600052602060002090601f0160209004810192826200021a576000855562000265565b82601f106200023557805160ff191683800117855562000265565b8280016001018555821562000265579182015b828111156200026557825182559160200191906001019062000248565b506200027392915062000277565b5090565b5b8082111562000273576000815560010162000278565b634e487b7160e01b600052604160045260246000fd5b600082601f830112620002b657600080fd5b81516001600160401b0380821115620002d357620002d36200028e565b604051601f8301601f19908116603f01168101908282118183101715620002fe57620002fe6200028e565b816040528381526020925086838588010111156200031b57600080fd5b600091505b838210156200033f578582018301518183018401529082019062000320565b83821115620003515760008385830101525b9695505050505050565b600080600080600060a086880312156200037457600080fd5b85516001600160401b03808211156200038c57600080fd5b6200039a89838a01620002a4565b96506020880151915080821115620003b157600080fd5b50620003c088828901620002a4565b60408801516060890151919650945090506001600160a01b0381168114620003e757600080fd5b80925050608086015190509295509295909350565b600181811c908216806200041157607f821691505b602082108114156200043357634e487b7160e01b600052602260045260246000fd5b50919050565b608051611a196200045c6000396000818161107b01526110a50152611a196000f3fe608060405234801561001057600080fd5b50600436106101425760003560e01c80636c2f5acd116100b8578063a22cb4651161007c578063a22cb465146102b2578063b88d4fde146102c5578063c87b56dd146102d8578063d7224ba0146102eb578063e985e9c5146102f4578063f2fde38b1461033057600080fd5b80636c2f5acd1461026b57806370a082311461027e578063715018a6146102915780638da5cb5b1461029957806395d89b41146102aa57600080fd5b806323b872dd1161010a57806323b872dd146101da5780632a55205a146101ed5780632f745c591461021f57806342842e0e146102325780634f6ccce7146102455780636352211e1461025857600080fd5b806301ffc9a71461014757806306fdde031461016f578063081812fc14610184578063095ea7b3146101af57806318160ddd146101c4575b600080fd5b61015a6101553660046114a2565b610343565b60405190151581526020015b60405180910390f35b61017761036e565b6040516101669190611517565b61019761019236600461152a565b610400565b6040516001600160a01b039091168152602001610166565b6101c26101bd36600461155f565b610490565b005b6101cc6105a8565b604051908152602001610166565b6101c26101e8366004611589565b6105bd565b6102006101fb3660046115c5565b6105c8565b604080516001600160a01b039093168352602083019190915201610166565b6101cc61022d36600461155f565b61061d565b6101c2610240366004611589565b610795565b6101cc61025336600461152a565b6107b0565b61019761026636600461152a565b610818565b6101c261027936600461155f565b61082a565b6101cc61028c3660046115e7565b610862565b6101c26108f3565b6000546001600160a01b0316610197565b610177610929565b6101c26102c0366004611602565b610938565b6101c26102d3366004611654565b6109fd565b6101776102e636600461152a565b610a36565b6101cc60085481565b61015a610302366004611730565b6001600160a01b03918216600090815260076020908152604080832093909416825291909152205460ff1690565b6101c261033e3660046115e7565b610b10565b60006001600160e01b0319821663152a902d60e11b1480610368575061036882610bab565b92915050565b60606002805461037d90611763565b80601f01602080910402602001604051908101604052809291908181526020018280546103a990611763565b80156103f65780601f106103cb576101008083540402835291602001916103f6565b820191906000526020600020905b8154815290600101906020018083116103d957829003601f168201915b5050505050905090565b600061040d826001541190565b6104745760405162461bcd60e51b815260206004820152602d60248201527f455243373231413a20617070726f76656420717565727920666f72206e6f6e6560448201526c3c34b9ba32b73a103a37b5b2b760991b60648201526084015b60405180910390fd5b506000908152600660205260409020546001600160a01b031690565b600061049b82610818565b9050806001600160a01b0316836001600160a01b0316141561050a5760405162461bcd60e51b815260206004820152602260248201527f455243373231413a20617070726f76616c20746f2063757272656e74206f776e60448201526132b960f11b606482015260840161046b565b336001600160a01b038216148061052657506105268133610302565b6105985760405162461bcd60e51b815260206004820152603960248201527f455243373231413a20617070726f76652063616c6c6572206973206e6f74206f60448201527f776e6572206e6f7220617070726f76656420666f7220616c6c00000000000000606482015260840161046b565b6105a3838383610c16565b505050565b6000600180546105b891906117b4565b905090565b6105a3838383610c72565b604080518082019091526009546001600160a01b038116808352600160a01b90910462ffffff166020830181905290916000916127109061060990866117cb565b6106139190611800565b9150509250929050565b600061062883610862565b82106106815760405162461bcd60e51b815260206004820152602260248201527f455243373231413a206f776e657220696e646578206f7574206f6620626f756e604482015261647360f01b606482015260840161046b565b600061068b6105a8565b905060008060005b83811015610735576000818152600460209081526040918290208251808401909352546001600160a01b038116808452600160a01b90910467ffffffffffffffff1691830191909152156106e657805192505b876001600160a01b0316836001600160a01b0316141561072257868414156107145750935061036892505050565b8361071e81611814565b9450505b508061072d81611814565b915050610693565b5060405162461bcd60e51b815260206004820152602e60248201527f455243373231413a20756e61626c6520746f2067657420746f6b656e206f662060448201526d0deeedccae440c4f240d2dcc8caf60931b606482015260840161046b565b6105a3838383604051806020016040528060008152506109fd565b60006107ba6105a8565b82106108145760405162461bcd60e51b815260206004820152602360248201527f455243373231413a20676c6f62616c20696e646578206f7574206f6620626f756044820152626e647360e81b606482015260840161046b565b5090565b600061082382610ff9565b5192915050565b6000546001600160a01b031633146108545760405162461bcd60e51b815260040161046b9061182f565b61085e82826111a3565b5050565b60006001600160a01b0382166108ce5760405162461bcd60e51b815260206004820152602b60248201527f455243373231413a2062616c616e636520717565727920666f7220746865207a60448201526a65726f206164647265737360a81b606482015260840161046b565b506001600160a01b03166000908152600560205260409020546001600160801b031690565b6000546001600160a01b0316331461091d5760405162461bcd60e51b815260040161046b9061182f565b610927600061123f565b565b60606003805461037d90611763565b6001600160a01b0382163314156109915760405162461bcd60e51b815260206004820152601a60248201527f455243373231413a20617070726f766520746f2063616c6c6572000000000000604482015260640161046b565b3360008181526007602090815260408083206001600160a01b03871680855290835292819020805460ff191686151590811790915590519081529192917f17307eab39ab6107e8899845ad3d59bd9653f200f220920489ca2b5937696c31910160405180910390a35050565b610a08848484610c72565b610a148484848461128f565b610a305760405162461bcd60e51b815260040161046b90611864565b50505050565b6060610a43826001541190565b610aa75760405162461bcd60e51b815260206004820152602f60248201527f4552433732314d657461646174613a2055524920717565727920666f72206e6f60448201526e3732bc34b9ba32b73a103a37b5b2b760891b606482015260840161046b565b6000610abe60408051602081019091526000815290565b90506000815111610ade5760405180602001604052806000815250610b09565b80610ae88461138e565b604051602001610af99291906118b7565b6040516020818303038152906040525b9392505050565b6000546001600160a01b03163314610b3a5760405162461bcd60e51b815260040161046b9061182f565b6001600160a01b038116610b9f5760405162461bcd60e51b815260206004820152602660248201527f4f776e61626c653a206e6577206f776e657220697320746865207a65726f206160448201526564647265737360d01b606482015260840161046b565b610ba88161123f565b50565b60006001600160e01b031982166380ac58cd60e01b1480610bdc57506001600160e01b03198216635b5e139f60e01b145b80610bf757506001600160e01b0319821663780e9d6360e01b145b8061036857506301ffc9a760e01b6001600160e01b0319831614610368565b60008281526006602052604080822080546001600160a01b0319166001600160a01b0387811691821790925591518593918516917f8c5be1e5ebec7d5bd14f71427d1e84f3dd0314c0f7b2291e5b200ac8c7c3b92591a4505050565b6000610c7d82610ff9565b80519091506000906001600160a01b0316336001600160a01b03161480610cb4575033610ca984610400565b6001600160a01b0316145b80610cc657508151610cc69033610302565b905080610d305760405162461bcd60e51b815260206004820152603260248201527f455243373231413a207472616e736665722063616c6c6572206973206e6f74206044820152711bdddb995c881b9bdc88185c1c1c9bdd995960721b606482015260840161046b565b846001600160a01b031682600001516001600160a01b031614610da45760405162461bcd60e51b815260206004820152602660248201527f455243373231413a207472616e736665722066726f6d20696e636f72726563746044820152651037bbb732b960d11b606482015260840161046b565b6001600160a01b038416610e085760405162461bcd60e51b815260206004820152602560248201527f455243373231413a207472616e7366657220746f20746865207a65726f206164604482015264647265737360d81b606482015260840161046b565b610e186000848460000151610c16565b6001600160a01b0385166000908152600560205260408120805460019290610e4a9084906001600160801b03166118e6565b82546101009290920a6001600160801b038181021990931691831602179091556001600160a01b03861660009081526005602052604081208054600194509092610e969185911661190e565b82546001600160801b039182166101009390930a9283029190920219909116179055506040805180820182526001600160a01b03808716825267ffffffffffffffff428116602080850191825260008981526004909152948520935184549151909216600160a01b026001600160e01b03199091169190921617179055610f1e846001611930565b6000818152600460205260409020549091506001600160a01b0316610fb057610f48816001541190565b15610fb05760408051808201825284516001600160a01b03908116825260208087015167ffffffffffffffff9081168285019081526000878152600490935294909120925183549451909116600160a01b026001600160e01b03199094169116179190911790555b83856001600160a01b0316876001600160a01b03167fddf252ad1be2c89b69c2b068fc378daa952ba7f163c4a11628f55a4df523b3ef60405160405180910390a4505050505050565b6040805180820190915260008082526020820152611018826001541190565b6110775760405162461bcd60e51b815260206004820152602a60248201527f455243373231413a206f776e657220717565727920666f72206e6f6e657869736044820152693a32b73a103a37b5b2b760b11b606482015260840161046b565b60007f000000000000000000000000000000000000000000000000000000000000000083106110d8576110ca7f0000000000000000000000000000000000000000000000000000000000000000846117b4565b6110d5906001611930565b90505b825b818110611142576000818152600460209081526040918290208251808401909352546001600160a01b038116808452600160a01b90910467ffffffffffffffff16918301919091521561112f57949350505050565b508061113a81611948565b9150506110da565b5060405162461bcd60e51b815260206004820152602f60248201527f455243373231413a20756e61626c6520746f2064657465726d696e652074686560448201526e1037bbb732b91037b3103a37b5b2b760891b606482015260840161046b565b6127108111156111f55760405162461bcd60e51b815260206004820152601a60248201527f45524332393831526f79616c746965733a20546f6f2068696768000000000000604482015260640161046b565b604080518082019091526001600160a01b0390921680835262ffffff909116602090920182905260098054600160a01b9093026001600160b81b0319909316909117919091179055565b600080546001600160a01b038381166001600160a01b0319831681178455604051919092169283917f8be0079c531659141344cd1fd0a4f28419497f9722a3daafe3b4186f6b6457e09190a35050565b60006001600160a01b0384163b1561138257604051630a85bd0160e11b81526001600160a01b0385169063150b7a02906112d390339089908890889060040161195f565b6020604051808303816000875af192505050801561130e575060408051601f3d908101601f1916820190925261130b9181019061199c565b60015b611368573d80801561133c576040519150601f19603f3d011682016040523d82523d6000602084013e611341565b606091505b5080516113605760405162461bcd60e51b815260040161046b90611864565b805181602001fd5b6001600160e01b031916630a85bd0160e11b149050611386565b5060015b949350505050565b6060816113b25750506040805180820190915260018152600360fc1b602082015290565b8160005b81156113dc57806113c681611814565b91506113d59050600a83611800565b91506113b6565b60008167ffffffffffffffff8111156113f7576113f761163e565b6040519080825280601f01601f191660200182016040528015611421576020820181803683370190505b5090505b8415611386576114366001836117b4565b9150611443600a866119b9565b61144e906030611930565b60f81b818381518110611463576114636119cd565b60200101906001600160f81b031916908160001a905350611485600a86611800565b9450611425565b6001600160e01b031981168114610ba857600080fd5b6000602082840312156114b457600080fd5b8135610b098161148c565b60005b838110156114da5781810151838201526020016114c2565b83811115610a305750506000910152565b600081518084526115038160208601602086016114bf565b601f01601f19169290920160200192915050565b602081526000610b0960208301846114eb565b60006020828403121561153c57600080fd5b5035919050565b80356001600160a01b038116811461155a57600080fd5b919050565b6000806040838503121561157257600080fd5b61157b83611543565b946020939093013593505050565b60008060006060848603121561159e57600080fd5b6115a784611543565b92506115b560208501611543565b9150604084013590509250925092565b600080604083850312156115d857600080fd5b50508035926020909101359150565b6000602082840312156115f957600080fd5b610b0982611543565b6000806040838503121561161557600080fd5b61161e83611543565b91506020830135801515811461163357600080fd5b809150509250929050565b634e487b7160e01b600052604160045260246000fd5b6000806000806080858703121561166a57600080fd5b61167385611543565b935061168160208601611543565b925060408501359150606085013567ffffffffffffffff808211156116a557600080fd5b818701915087601f8301126116b957600080fd5b8135818111156116cb576116cb61163e565b604051601f8201601f19908116603f011681019083821181831017156116f3576116f361163e565b816040528281528a602084870101111561170c57600080fd5b82602086016020830137600060208483010152809550505050505092959194509250565b6000806040838503121561174357600080fd5b61174c83611543565b915061175a60208401611543565b90509250929050565b600181811c9082168061177757607f821691505b6020821081141561179857634e487b7160e01b600052602260045260246000fd5b50919050565b634e487b7160e01b600052601160045260246000fd5b6000828210156117c6576117c661179e565b500390565b60008160001904831182151516156117e5576117e561179e565b500290565b634e487b7160e01b600052601260045260246000fd5b60008261180f5761180f6117ea565b500490565b60006000198214156118285761182861179e565b5060010190565b6020808252818101527f4f776e61626c653a2063616c6c6572206973206e6f7420746865206f776e6572604082015260600190565b60208082526033908201527f455243373231413a207472616e7366657220746f206e6f6e204552433732315260408201527232b1b2b4bb32b91034b6b83632b6b2b73a32b960691b606082015260800190565b600083516118c98184602088016114bf565b8351908301906118dd8183602088016114bf565b01949350505050565b60006001600160801b03838116908316818110156119065761190661179e565b039392505050565b60006001600160801b038083168185168083038211156118dd576118dd61179e565b600082198211156119435761194361179e565b500190565b6000816119575761195761179e565b506000190190565b6001600160a01b0385811682528416602082015260408101839052608060608201819052600090611992908301846114eb565b9695505050505050565b6000602082840312156119ae57600080fd5b8151610b098161148c565b6000826119c8576119c86117ea565b500690565b634e487b7160e01b600052603260045260246000fdfea2646970667358221220570b21473c941c943e9859668b5c03c346bd4e273e1891a3266e9c30d409ca4264736f6c634300080a0033",
    "linkReferences": {}
  },
  "methodIdentifiers": {
    "approve(address,uint256)": "095ea7b3",
    "balanceOf(address)": "70a08231",
    "getApproved(uint256)": "081812fc",
    "isApprovedForAll(address,address)": "e985e9c5",
    "name()": "06fdde03",
    "nextOwnerToExplicitlySet()": "d7224ba0",
    "owner()": "8da5cb5b",
    "ownerOf(uint256)": "6352211e",
    "renounceOwnership()": "715018a6",
    "royaltyInfo(uint256,uint256)": "2a55205a",
    "safeTransferFrom(address,address,uint256)": "42842e0e",
    "safeTransferFrom(address,address,uint256,bytes)": "b88d4fde",
    "setApprovalForAll(address,bool)": "a22cb465",
    "supportsInterface(bytes4)": "01ffc9a7",
    "symbol()": "95d89b41",
    "tokenByIndex(uint256)": "4f6ccce7",
    "tokenOfOwnerByIndex(address,uint256)": "2f745c59",
    "tokenURI(uint256)": "c87b56dd",
    "totalSupply()": "18160ddd",
    "transferFrom(address,address,uint256)": "23b872dd",
    "transferOwnership(address)": "f2fde38b",
    "updateRoyalties(address,uint256)": "6c2f5acd"
  },
  "id": 5
}