{
  "abi": [
    {
      "inputs": [
        {
          "internalType": "string",
          "name": "name_",
          "type": "string"
        },
        {
          "internalType": "string",
          "name": "symbol_",
          "type": "string"
        },
        {
          "internalType": "uint256",
          "name": "maxBatchSize_",
          "type": "uint256"
        },
        {
          "internalType": "address",
          "name": "royaltyRecipient",
          "type": "address"
        },
        {
          "internalType": "uint256",
          "name": "royaltyValue",
          "type": "uint256"
        }
      ],
      "stateMutability": "nonpayable",
      "type": "constructor"
    },
    {
      "anonymous": false,
      "inputs": [
        {
          "indexed": true,
          "internalType": "address",
          "name": "owner",
          "type": "address"
        },
        {
          "indexed": true,
          "internalType": "address",
          "name": "approved",
          "type": "address"
        },
        {
          "indexed": true,
          "internalType": "uint256",
          "name": "tokenId",
          "type": "uint256"
        }
      ],
      "name": "Approval",
      "type": "event"
    },
    {
      "anonymous": false,
      "inputs": [
        {
          "indexed": true,
          "internalType": "address",
          "name": "owner",
          "type": "address"
        },
        {
          "indexed": true,
          "internalType": "address",
          "name": "operator",
          "type": "address"
        },
        {
          "indexed": false,
          "internalType": "bool",
          "name": "approved",
          "type": "bool"
        }
      ],
      "name": "ApprovalForAll",
      "type": "event"
    },
    {
      "anonymous": false,
      "inputs": [
        {
          "indexed": true,
          "internalType": "address",
          "name": "previousOwner",
          "type": "address"
        },
        {
          "indexed": true,
          "internalType": "address",
          "name": "newOwner",
          "type": "address"
        }
      ],
      "name": "OwnershipTransferred",
      "type": "event"
    },
    {
      "anonymous": false,
      "inputs": [
        {
          "indexed": true,
          "internalType": "address",
          "name": "from",
          "type": "address"
        },
        {
          "indexed": true,
          "internalType": "address",
          "name": "to",
          "type": "address"
        },
        {
          "indexed": true,
          "internalType": "uint256",
          "name": "tokenId",
          "type": "uint256"
        }
      ],
      "name": "Transfer",
      "type": "event"
    },
    {
      "inputs": [
        {
          "internalType": "address",
          "name": "to",
          "type": "address"
        },
        {
          "internalType": "uint256",
          "name": "tokenId",
          "type": "uint256"
        }
      ],
      "name": "approve",
      "outputs": [],
      "stateMutability": "nonpayable",
      "type": "function"
    },
    {
      "inputs": [
        {
          "internalType": "address",
          "name": "owner",
          "type": "address"
        }
      ],
      "name": "balanceOf",
      "outputs": [
        {
          "internalType": "uint256",
          "name": "",
          "type": "uint256"
        }
      ],
      "stateMutability": "view",
      "type": "function"
    },
    {
      "inputs": [
        {
          "internalType": "uint256",
          "name": "tokenId",
          "type": "uint256"
        }
      ],
      "name": "getApproved",
      "outputs": [
        {
          "internalType": "address",
          "name": "",
          "type": "address"
        }
      ],
      "stateMutability": "view",
      "type": "function"
    },
    {
      "inputs": [
        {
          "internalType": "address",
          "name": "owner",
          "type": "address"
        },
        {
          "internalType": "address",
          "name": "operator",
          "type": "address"
        }
      ],
      "name": "isApprovedForAll",
      "outputs": [
        {
          "internalType": "bool",
          "name": "",
          "type": "bool"
        }
      ],
      "stateMutability": "view",
      "type": "function"
    },
    {
      "inputs": [],
      "name": "name",
      "outputs": [
        {
          "internalType": "string",
          "name": "",
          "type": "string"
        }
      ],
      "stateMutability": "view",
      "type": "function"
    },
    {
      "inputs": [],
      "name": "nextOwnerToExplicitlySet",
      "outputs": [
        {
          "internalType": "uint256",
          "name": "",
          "type": "uint256"
        }
      ],
      "stateMutability": "view",
      "type": "function"
    },
    {
      "inputs": [],
      "name": "owner",
      "outputs": [
        {
          "internalType": "address",
          "name": "",
          "type": "address"
        }
      ],
      "stateMutability": "view",
      "type": "function"
    },
    {
      "inputs": [
        {
          "internalType": "uint256",
          "name": "tokenId",
          "type": "uint256"
        }
      ],
      "name": "ownerOf",
      "outputs": [
        {
          "internalType": "address",
          "name": "",
          "type": "address"
        }
      ],
      "stateMutability": "view",
      "type": "function"
    },
    {
      "inputs": [],
      "name": "renounceOwnership",
      "outputs": [],
      "stateMutability": "nonpayable",
      "type": "function"
    },
    {
      "inputs": [
        {
          "internalType": "uint256",
          "name": "",
          "type": "uint256"
        },
        {
          "internalType": "uint256",
          "name": "value",
          "type": "uint256"
        }
      ],
      "name": "royaltyInfo",
      "outputs": [
        {
          "internalType": "address",
          "name": "receiver",
          "type": "address"
        },
        {
          "internalType": "uint256",
          "name": "royaltyAmount",
          "type": "uint256"
        }
      ],
      "stateMutability": "view",
      "type": "function"
    },
    {
      "inputs": [
        {
          "internalType": "address",
          "name": "from",
          "type": "address"
        },
        {
          "internalType": "address",
          "name": "to",
          "type": "address"
        },
        {
          "internalType": "uint256",
          "name": "tokenId",
          "type": "uint256"
        }
      ],
      "name": "safeTransferFrom",
      "outputs": [],
      "stateMutability": "nonpayable",
      "type": "function"
    },
    {
      "inputs": [
        {
          "internalType": "address",
          "name": "from",
          "type": "address"
        },
        {
          "internalType": "address",
          "name": "to",
          "type": "address"
        },
        {
          "internalType": "uint256",
          "name": "tokenId",
          "type": "uint256"
        },
        {
          "internalType": "bytes",
          "name": "_data",
          "type": "bytes"
        }
      ],
      "name": "safeTransferFrom",
      "outputs": [],
      "stateMutability": "nonpayable",
      "type": "function"
    },
    {
      "inputs": [
        {
          "internalType": "address",
          "name": "operator",
          "type": "address"
        },
        {
          "internalType": "bool",
          "name": "approved",
          "type": "bool"
        }
      ],
      "name": "setApprovalForAll",
      "outputs": [],
      "stateMutability": "nonpayable",
      "type": "function"
    },
    {
      "inputs": [
        {
          "internalType": "bytes4",
          "name": "interfaceId",
          "type": "bytes4"
        }
      ],
      "name": "supportsInterface",
      "outputs": [
        {
          "internalType": "bool",
          "name": "",
          "type": "bool"
        }
      ],
      "stateMutability": "view",
      "type": "function"
    },
    {
      "inputs": [],
      "name": "symbol",
      "outputs": [
        {
          "internalType": "string",
          "name": "",
          "type": "string"
        }
      ],
      "stateMutability": "view",
      "type": "function"
    },
    {
      "inputs": [
        {
          "internalType": "uint256",
          "name": "index",
          "type": "uint256"
        }
      ],
      "name": "tokenByIndex",
      "outputs": [
        {
          "internalType": "uint256",
          "name": "",
          "type": "uint256"
        }
      ],
      "stateMutability": "view",
      "type": "function"
    },
    {
      "inputs": [
        {
          "internalType": "address",
          "name": "owner",
          "type": "address"
        },
        {
          "internalType": "uint256",
          "name": "index",
          "type": "uint256"
        }
      ],
      "name": "tokenOfOwnerByIndex",
      "outputs": [
        {
          "internalType": "uint256",
          "name": "",
          "type": "uint256"
        }
      ],
      "stateMutability": "view",
      "type": "function"
    },
    {
      "inputs": [
        {
          "internalType": "uint256",
          "name": "tokenId",
          "type": "uint256"
        }
      ],
      "name": "tokenURI",
      "outputs": [
        {
          "internalType": "string",
          "name": "",
          "type": "string"
        }
      ],
      "stateMutability": "view",
      "type": "function"
    },
    {
      "inputs": [],
      "name": "totalSupply",
      "outputs": [
        {
          "internalType": "uint256",
          "name": "",
          "type": "uint256"
        }
      ],
      "stateMutability": "view",
      "type": "function"
    },
    {
      "inputs": [
        {
          "internalType": "address",
          "name": "from",
          "type": "address"
        },
        {
          "internalType": "address",
          "name": "to",
          "type": "address"
        },
        {
          "internalType": "uint256",
          "name": "tokenId",
          "type": "uint256"
        }
      ],
      "name": "transferFrom",
      "outputs": [],
      "stateMutability": "nonpayable",
      "type": "function"
    },
    {
      "inputs": [
        {
          "internalType": "address",
          "name": "newOwner",
          "type": "address"
        }
      ],
      "name": "transferOwnership",
      "outputs": [],
      "stateMutability": "nonpayable",
      "type": "function"
    },
    {
      "inputs": [
        {
          "internalType": "address",
          "name": "recipient",
          "type": "address"
        },
        {
          "internalType": "uint256",
          "name": "value",
          "type": "uint256"
        }
      ],
      "name": "updateRoyalties",
      "outputs": [],
      "stateMutability": "nonpayable",
      "type": "function"
    }
  ],
  "bytecode": {
    "object": "0x60a06040526001805560006008553480156200001a57600080fd5b5060405162001ec238038062001ec28339810160408190526200003d916200029f565b8484846200004b33620000ec565b60008111620000b15760405162461bcd60e51b815260206004820152602760248201527f455243373231413a206d61782062617463682073697a65206d757374206265206044820152666e6f6e7a65726f60c81b60648201526084015b60405180910390fd5b6002620000bf8482620003cf565b506003620000ce8382620003cf565b5060805250620000e1905082826200013c565b50505050506200049b565b600080546001600160a01b038381166001600160a01b0319831681178455604051919092169283917f8be0079c531659141344cd1fd0a4f28419497f9722a3daafe3b4186f6b6457e09190a35050565b612710811115620001905760405162461bcd60e51b815260206004820152601a60248201527f45524332393831526f79616c746965733a20546f6f20686967680000000000006044820152606401620000a8565b604080518082019091526001600160a01b0390921680835262ffffff909116602090920182905260098054600160a01b9093026001600160b81b0319909316909117919091179055565b634e487b7160e01b600052604160045260246000fd5b600082601f8301126200020257600080fd5b81516001600160401b03808211156200021f576200021f620001da565b604051601f8301601f19908116603f011681019082821181831017156200024a576200024a620001da565b816040528381526020925086838588010111156200026757600080fd5b600091505b838210156200028b57858201830151818301840152908201906200026c565b600093810190920192909252949350505050565b600080600080600060a08688031215620002b857600080fd5b85516001600160401b0380821115620002d057600080fd5b620002de89838a01620001f0565b96506020880151915080821115620002f557600080fd5b506200030488828901620001f0565b60408801516060890151919650945090506001600160a01b03811681146200032b57600080fd5b80925050608086015190509295509295909350565b600181811c908216806200035557607f821691505b6020821081036200037657634e487b7160e01b600052602260045260246000fd5b50919050565b601f821115620003ca57600081815260208120601f850160051c81016020861015620003a55750805b601f850160051c820191505b81811015620003c657828155600101620003b1565b5050505b505050565b81516001600160401b03811115620003eb57620003eb620001da565b6200040381620003fc845462000340565b846200037c565b602080601f8311600181146200043b5760008415620004225750858301515b600019600386901b1c1916600185901b178555620003c6565b600085815260208120601f198616915b828110156200046c578886015182559484019460019091019084016200044b565b50858210156200048b5787850151600019600388901b60f8161c191681555b5050505050600190811b01905550565b608051611a04620004be6000396000818161107701526110a10152611a046000f3fe608060405234801561001057600080fd5b50600436106101425760003560e01c80636c2f5acd116100b8578063a22cb4651161007c578063a22cb465146102b2578063b88d4fde146102c5578063c87b56dd146102d8578063d7224ba0146102eb578063e985e9c5146102f4578063f2fde38b1461033057600080fd5b80636c2f5acd1461026b57806370a082311461027e578063715018a6146102915780638da5cb5b1461029957806395d89b41146102aa57600080fd5b806323b872dd1161010a57806323b872dd146101da5780632a55205a146101ed5780632f745c591461021f57806342842e0e146102325780634f6ccce7146102455780636352211e1461025857600080fd5b806301ffc9a71461014757806306fdde031461016f578063081812fc14610184578063095ea7b3146101af57806318160ddd146101c4575b600080fd5b61015a6101553660046114a4565b610343565b60405190151581526020015b60405180910390f35b61017761036e565b6040516101669190611511565b610197610192366004611524565b610400565b6040516001600160a01b039091168152602001610166565b6101c26101bd366004611559565b610490565b005b6101cc6105a7565b604051908152602001610166565b6101c26101e8366004611583565b6105bc565b6102006101fb3660046115bf565b6105c7565b604080516001600160a01b039093168352602083019190915201610166565b6101cc61022d366004611559565b61061c565b6101c2610240366004611583565b610792565b6101cc610253366004611524565b6107ad565b610197610266366004611524565b610815565b6101c2610279366004611559565b610827565b6101cc61028c3660046115e1565b61085f565b6101c26108f0565b6000546001600160a01b0316610197565b610177610926565b6101c26102c03660046115fc565b610935565b6101c26102d336600461164e565b6109f9565b6101776102e6366004611524565b610a32565b6101cc60085481565b61015a61030236600461172a565b6001600160a01b03918216600090815260076020908152604080832093909416825291909152205460ff1690565b6101c261033e3660046115e1565b610b0c565b60006001600160e01b0319821663152a902d60e11b1480610368575061036882610ba7565b92915050565b60606002805461037d9061175d565b80601f01602080910402602001604051908101604052809291908181526020018280546103a99061175d565b80156103f65780601f106103cb576101008083540402835291602001916103f6565b820191906000526020600020905b8154815290600101906020018083116103d957829003601f168201915b5050505050905090565b600061040d826001541190565b6104745760405162461bcd60e51b815260206004820152602d60248201527f455243373231413a20617070726f76656420717565727920666f72206e6f6e6560448201526c3c34b9ba32b73a103a37b5b2b760991b60648201526084015b60405180910390fd5b506000908152600660205260409020546001600160a01b031690565b600061049b82610815565b9050806001600160a01b0316836001600160a01b0316036105095760405162461bcd60e51b815260206004820152602260248201527f455243373231413a20617070726f76616c20746f2063757272656e74206f776e60448201526132b960f11b606482015260840161046b565b336001600160a01b038216148061052557506105258133610302565b6105975760405162461bcd60e51b815260206004820152603960248201527f455243373231413a20617070726f76652063616c6c6572206973206e6f74206f60448201527f776e6572206e6f7220617070726f76656420666f7220616c6c00000000000000606482015260840161046b565b6105a2838383610c12565b505050565b6000600180546105b791906117ad565b905090565b6105a2838383610c6e565b604080518082019091526009546001600160a01b038116808352600160a01b90910462ffffff166020830181905290916000916127109061060890866117c0565b61061291906117f5565b9150509250929050565b60006106278361085f565b82106106805760405162461bcd60e51b815260206004820152602260248201527f455243373231413a206f776e657220696e646578206f7574206f6620626f756e604482015261647360f01b606482015260840161046b565b600061068a6105a7565b905060008060005b83811015610732576000818152600460209081526040918290208251808401909352546001600160a01b038116808452600160a01b90910467ffffffffffffffff1691830191909152156106e557805192505b876001600160a01b0316836001600160a01b03160361071f578684036107115750935061036892505050565b8361071b81611809565b9450505b508061072a81611809565b915050610692565b5060405162461bcd60e51b815260206004820152602e60248201527f455243373231413a20756e61626c6520746f2067657420746f6b656e206f662060448201526d0deeedccae440c4f240d2dcc8caf60931b606482015260840161046b565b6105a2838383604051806020016040528060008152506109f9565b60006107b76105a7565b82106108115760405162461bcd60e51b815260206004820152602360248201527f455243373231413a20676c6f62616c20696e646578206f7574206f6620626f756044820152626e647360e81b606482015260840161046b565b5090565b600061082082610ff5565b5192915050565b6000546001600160a01b031633146108515760405162461bcd60e51b815260040161046b90611822565b61085b828261119f565b5050565b60006001600160a01b0382166108cb5760405162461bcd60e51b815260206004820152602b60248201527f455243373231413a2062616c616e636520717565727920666f7220746865207a60448201526a65726f206164647265737360a81b606482015260840161046b565b506001600160a01b03166000908152600560205260409020546001600160801b031690565b6000546001600160a01b0316331461091a5760405162461bcd60e51b815260040161046b90611822565b610924600061123b565b565b60606003805461037d9061175d565b336001600160a01b0383160361098d5760405162461bcd60e51b815260206004820152601a60248201527f455243373231413a20617070726f766520746f2063616c6c6572000000000000604482015260640161046b565b3360008181526007602090815260408083206001600160a01b03871680855290835292819020805460ff191686151590811790915590519081529192917f17307eab39ab6107e8899845ad3d59bd9653f200f220920489ca2b5937696c31910160405180910390a35050565b610a04848484610c6e565b610a108484848461128b565b610a2c5760405162461bcd60e51b815260040161046b90611857565b50505050565b6060610a3f826001541190565b610aa35760405162461bcd60e51b815260206004820152602f60248201527f4552433732314d657461646174613a2055524920717565727920666f72206e6f60448201526e3732bc34b9ba32b73a103a37b5b2b760891b606482015260840161046b565b6000610aba60408051602081019091526000815290565b90506000815111610ada5760405180602001604052806000815250610b05565b80610ae48461138d565b604051602001610af59291906118aa565b6040516020818303038152906040525b9392505050565b6000546001600160a01b03163314610b365760405162461bcd60e51b815260040161046b90611822565b6001600160a01b038116610b9b5760405162461bcd60e51b815260206004820152602660248201527f4f776e61626c653a206e6577206f776e657220697320746865207a65726f206160448201526564647265737360d01b606482015260840161046b565b610ba48161123b565b50565b60006001600160e01b031982166380ac58cd60e01b1480610bd857506001600160e01b03198216635b5e139f60e01b145b80610bf357506001600160e01b0319821663780e9d6360e01b145b8061036857506301ffc9a760e01b6001600160e01b0319831614610368565b60008281526006602052604080822080546001600160a01b0319166001600160a01b0387811691821790925591518593918516917f8c5be1e5ebec7d5bd14f71427d1e84f3dd0314c0f7b2291e5b200ac8c7c3b92591a4505050565b6000610c7982610ff5565b80519091506000906001600160a01b0316336001600160a01b03161480610cb0575033610ca584610400565b6001600160a01b0316145b80610cc257508151610cc29033610302565b905080610d2c5760405162461bcd60e51b815260206004820152603260248201527f455243373231413a207472616e736665722063616c6c6572206973206e6f74206044820152711bdddb995c881b9bdc88185c1c1c9bdd995960721b606482015260840161046b565b846001600160a01b031682600001516001600160a01b031614610da05760405162461bcd60e51b815260206004820152602660248201527f455243373231413a207472616e736665722066726f6d20696e636f72726563746044820152651037bbb732b960d11b606482015260840161046b565b6001600160a01b038416610e045760405162461bcd60e51b815260206004820152602560248201527f455243373231413a207472616e7366657220746f20746865207a65726f206164604482015264647265737360d81b606482015260840161046b565b610e146000848460000151610c12565b6001600160a01b0385166000908152600560205260408120805460019290610e469084906001600160801b03166118d9565b82546101009290920a6001600160801b038181021990931691831602179091556001600160a01b03861660009081526005602052604081208054600194509092610e9291859116611900565b82546001600160801b039182166101009390930a9283029190920219909116179055506040805180820182526001600160a01b03808716825267ffffffffffffffff428116602080850191825260008981526004909152948520935184549151909216600160a01b026001600160e01b03199091169190921617179055610f1a846001611920565b6000818152600460205260409020549091506001600160a01b0316610fac57610f44816001541190565b15610fac5760408051808201825284516001600160a01b03908116825260208087015167ffffffffffffffff9081168285019081526000878152600490935294909120925183549451909116600160a01b026001600160e01b03199094169116179190911790555b83856001600160a01b0316876001600160a01b03167fddf252ad1be2c89b69c2b068fc378daa952ba7f163c4a11628f55a4df523b3ef60405160405180910390a4505050505050565b6040805180820190915260008082526020820152611014826001541190565b6110735760405162461bcd60e51b815260206004820152602a60248201527f455243373231413a206f776e657220717565727920666f72206e6f6e657869736044820152693a32b73a103a37b5b2b760b11b606482015260840161046b565b60007f000000000000000000000000000000000000000000000000000000000000000083106110d4576110c67f0000000000000000000000000000000000000000000000000000000000000000846117ad565b6110d1906001611920565b90505b825b81811061113e576000818152600460209081526040918290208251808401909352546001600160a01b038116808452600160a01b90910467ffffffffffffffff16918301919091521561112b57949350505050565b508061113681611933565b9150506110d6565b5060405162461bcd60e51b815260206004820152602f60248201527f455243373231413a20756e61626c6520746f2064657465726d696e652074686560448201526e1037bbb732b91037b3103a37b5b2b760891b606482015260840161046b565b6127108111156111f15760405162461bcd60e51b815260206004820152601a60248201527f45524332393831526f79616c746965733a20546f6f2068696768000000000000604482015260640161046b565b604080518082019091526001600160a01b0390921680835262ffffff909116602090920182905260098054600160a01b9093026001600160b81b0319909316909117919091179055565b600080546001600160a01b038381166001600160a01b0319831681178455604051919092169283917f8be0079c531659141344cd1fd0a4f28419497f9722a3daafe3b4186f6b6457e09190a35050565b60006001600160a01b0384163b1561138157604051630a85bd0160e11b81526001600160a01b0385169063150b7a02906112cf90339089908890889060040161194a565b6020604051808303816000875af192505050801561130a575060408051601f3d908101601f1916820190925261130791810190611987565b60015b611367573d808015611338576040519150601f19603f3d011682016040523d82523d6000602084013e61133d565b606091505b50805160000361135f5760405162461bcd60e51b815260040161046b90611857565b805181602001fd5b6001600160e01b031916630a85bd0160e11b149050611385565b5060015b949350505050565b6060816000036113b45750506040805180820190915260018152600360fc1b602082015290565b8160005b81156113de57806113c881611809565b91506113d79050600a836117f5565b91506113b8565b60008167ffffffffffffffff8111156113f9576113f9611638565b6040519080825280601f01601f191660200182016040528015611423576020820181803683370190505b5090505b8415611385576114386001836117ad565b9150611445600a866119a4565b611450906030611920565b60f81b818381518110611465576114656119b8565b60200101906001600160f81b031916908160001a905350611487600a866117f5565b9450611427565b6001600160e01b031981168114610ba457600080fd5b6000602082840312156114b657600080fd5b8135610b058161148e565b60005b838110156114dc5781810151838201526020016114c4565b50506000910152565b600081518084526114fd8160208601602086016114c1565b601f01601f19169290920160200192915050565b602081526000610b0560208301846114e5565b60006020828403121561153657600080fd5b5035919050565b80356001600160a01b038116811461155457600080fd5b919050565b6000806040838503121561156c57600080fd5b6115758361153d565b946020939093013593505050565b60008060006060848603121561159857600080fd5b6115a18461153d565b92506115af6020850161153d565b9150604084013590509250925092565b600080604083850312156115d257600080fd5b50508035926020909101359150565b6000602082840312156115f357600080fd5b610b058261153d565b6000806040838503121561160f57600080fd5b6116188361153d565b91506020830135801515811461162d57600080fd5b809150509250929050565b634e487b7160e01b600052604160045260246000fd5b6000806000806080858703121561166457600080fd5b61166d8561153d565b935061167b6020860161153d565b925060408501359150606085013567ffffffffffffffff8082111561169f57600080fd5b818701915087601f8301126116b357600080fd5b8135818111156116c5576116c5611638565b604051601f8201601f19908116603f011681019083821181831017156116ed576116ed611638565b816040528281528a602084870101111561170657600080fd5b82602086016020830137600060208483010152809550505050505092959194509250565b6000806040838503121561173d57600080fd5b6117468361153d565b91506117546020840161153d565b90509250929050565b600181811c9082168061177157607f821691505b60208210810361179157634e487b7160e01b600052602260045260246000fd5b50919050565b634e487b7160e01b600052601160045260246000fd5b8181038181111561036857610368611797565b60008160001904831182151516156117da576117da611797565b500290565b634e487b7160e01b600052601260045260246000fd5b600082611804576118046117df565b500490565b60006001820161181b5761181b611797565b5060010190565b6020808252818101527f4f776e61626c653a2063616c6c6572206973206e6f7420746865206f776e6572604082015260600190565b60208082526033908201527f455243373231413a207472616e7366657220746f206e6f6e204552433732315260408201527232b1b2b4bb32b91034b6b83632b6b2b73a32b960691b606082015260800190565b600083516118bc8184602088016114c1565b8351908301906118d08183602088016114c1565b01949350505050565b6001600160801b038281168282160390808211156118f9576118f9611797565b5092915050565b6001600160801b038181168382160190808211156118f9576118f9611797565b8082018082111561036857610368611797565b60008161194257611942611797565b506000190190565b6001600160a01b038581168252841660208201526040810183905260806060820181905260009061197d908301846114e5565b9695505050505050565b60006020828403121561199957600080fd5b8151610b058161148e565b6000826119b3576119b36117df565b500690565b634e487b7160e01b600052603260045260246000fdfea264697066735822122029d63b80de848f5654369ca31c8786d8ef7f7131b13377c1e1199b984300d39c64736f6c63430008100033",
    "linkReferences": {}
  },
  "methodIdentifiers": {
    "approve(address,uint256)": "095ea7b3",
    "balanceOf(address)": "70a08231",
    "getApproved(uint256)": "081812fc",
    "isApprovedForAll(address,address)": "e985e9c5",
    "name()": "06fdde03",
    "nextOwnerToExplicitlySet()": "d7224ba0",
    "owner()": "8da5cb5b",
    "ownerOf(uint256)": "6352211e",
    "renounceOwnership()": "715018a6",
    "royaltyInfo(uint256,uint256)": "2a55205a",
    "safeTransferFrom(address,address,uint256)": "42842e0e",
    "safeTransferFrom(address,address,uint256,bytes)": "b88d4fde",
    "setApprovalForAll(address,bool)": "a22cb465",
    "supportsInterface(bytes4)": "01ffc9a7",
    "symbol()": "95d89b41",
    "tokenByIndex(uint256)": "4f6ccce7",
    "tokenOfOwnerByIndex(address,uint256)": "2f745c59",
    "tokenURI(uint256)": "c87b56dd",
    "totalSupply()": "18160ddd",
    "transferFrom(address,address,uint256)": "23b872dd",
    "transferOwnership(address)": "f2fde38b",
    "updateRoyalties(address,uint256)": "6c2f5acd"
  },
  "id": 11
}